:100000000C9483000C94790F0C94790F0C9459097B
:100010000C94B40A0C94790F0C947E0A0C94790F0A
:100020000C94790F0C94790F0C94790F0C94790F30
:100030000C94790F0C94790F0C94790F0C94790F20
:100040000C94790F0C94B0050C94790F0C94A00BC0
:100050000C94CD0B0C94E40D0C94140B0C94790FB0
:100060000C94790F0C94790F0C94790F0C94790FF0
:100070000C94790F0C94CE060C94790F0C94FA0B17
:100080000C94270C0C94FD0D0C94AE0E0C94790F6F
:100090000C94790F0C94790F0C94790F0C94790FC0
:1000A0000C94790F0C94790F0C94790F0C94790FB0
:1000B0000C94920E0C94A00E0C94790F0C94790F62
:1000C0000C94790F0C94790F0C94790F0C94790F90
:1000D0000C94790F0C94790F0C94790F0C94790F80
:1000E0000C94790F0C94790F40004569804569455F
:1000F00078001F18457845B08045B045B1000253DF
:1001000045B145B5800011241FBECFEFCDBFDFE75D
:10011000DEBFE8EEF0E041E019C0B791A79137915A
:100120002791079107FD0EC097918791EF01F92F55
:10013000E82F0BBF07900D92A217B307D9F7FE0166
:100140001BBE04C01D92A217B307E1F7E530F40708
:0E01500021F70E94C7080C94AD00F894FFCF71
:10015E0041542B434D47463D310D0A0041542B432C
:10016E004D47533D222B34303736393239373738F5
:10017E0030220D0A0041542B434750535057523DE5
:10018E00300D0A0041542B4346554E3D300D0A00AA
:10019E0041542B4353434C4B3D310D0A000000415B
:1001AE00003B00496E76616C69640A000A5B434F3E
:1001BE004E534F4C455D20494E56414C49440041EB
:1001CE00542B4346554E3D310D0A0041542B4347A7
:1001DE0050535057523D310D0A0041542B43475056
:1001EE00534F55543D33320D0A0041542B43475063
:1001FE00534F55543D300D0A000A205B434F4E536A
:10020E004F4C455D2047505320434F554E543A2096
:10021E0025640A00205B434F4E534F4C455D204DE5
:10022E006F64756C6520496E697469616C697A6575
:03023E00640D004C
:10024100170F040F200FEF0CD409760F3A0F560D3C
:02025100ED0EB0
:0102530005A5
:100254002F923F924F926F927F928F929F92AF9282
:10026400BF92CF92DF92EF92FF920F931F93CF939F
:10027400DF93CDB7DEB76297CDBFDEBF6C013A0125
:10028400862E7901FC0117821086848181FFEBC1DF
:100294009E012F5F3F4F2C873D87C901A0E8888BC3
:1002A400998BAA8B9FE3992EF301582D0E94570F27
:1002B400862F662309F4D3C1482D93012F5F3F4F46
:1002C4004F4F653219F03901842E0BC0F901542FB8
:1002D4000E94570F862F92E0690E711C811C6532B3
:1002E40029F4B60190E00E949809DECFB12C00E019
:1002F40010E01032A0F48B3269F030F4803259F0FF
:10030400833269F410612CC08D3239F0803339F4B2
:10031400116026C01260146023C0186021C017FD4C
:100324002AC090ED980F9A3078F416FF06C0AAE020
:10033400BA9E900D1124B92E13C0EAE00E9F900DC1
:100344001124092F10620CC08E3221F416FD87C1CE
:10035400106406C08C3611F4106802C0883659F453
:10036400F301582D0E94570F862FFFEF6F1A7F0A53
:100374008F0A6111BECF982F9F7D9554933028F436
:1003840024E0E20EF11C99820FC0833631F08337EA
:1003940091F0833509F064C027C0F7018081898317
:1003A40097012E5F3F4F7901288839884A88AA240B
:1003B400A394B12C17C0A7014D5F5F4F4E875F8791
:1003C400F70120803180428016FF03C04B2D50E09E
:1003D40002C04FEF5FEF842DB1010E94AE0D5C01AE
:1003E400EE84FF841F7718C097012D5F3F4F2E873F
:1003F4003F87F70120803180428016FF03C04B2DD8
:1004040050E002C04FEF5FEF842DB1010E94AE0DAA
:100414005C011068EE84FF8413FD1EC0802F90E001
:10042400A816B906C8F4B60180E290E00E949809C3
:100434000150F4CFF101542D0E94570F862FFFEF86
:100444002F1A3F0A4F0AB60190E00E949809011141
:10045400015021E0A21AB108A114B10459F7F5C062
:10046400843611F0893671F5F70117FF08C06081F1
:1004740071818281938197012C5F3F4F09C0608114
:100484007181072E000C880B990B97012E5F3F4F4B
:1004940079011F76312E97FF0AC09095809570954B
:1004A40061957F4F8F4F9F4F312F3068332E2AE055
:1004B40030E0AE014F5F5F4F0E947006482E4C85BE
:1004C400441A4AC0853729F41F7EA12E2AE030E061
:1004D40025C0512F597FA52E8F36C1F018F48835C9
:1004E40079F0BDC0803719F0883721F0B8C0852F66
:1004F4008061A82EA4FE0DC09A2D9460A92E09C077
:1005040014FF0AC0A52FA660AA2E06C028E030E07A
:1005140005C020E130E002C020E132E0F701A7FE8F
:1005240008C06081718182819381A7014C5F5F4F14
:1005340007C06081718180E090E0A7014E5F5F4F4A
:100544007A01AE014F5F5F4F0E947006482E5C85B2
:10055400451A8A2D8F77382E36FE0DC0932D9E7F37
:10056400A92E4B1458F434FE0BC032FC09C0A32D41
:10057400AE7EAA2E05C0142DA32C03C0142D01C0D9
:100584001B2DA4FE0EC0FE01E40DF11D80818033FD
:1005940021F4EA2DE97EAE2E08C0A2FE05C01E5F3E
:1005A40004C08A2D867809F01F5FA3FC11C0A0FE49
:1005B40006C0101788F4040DB02EB11A0EC010171F
:1005C40060F4B60180E290E00E9498091F5FF7CFC3
:1005D400101718F4011B02C0B42C00E0A4FE10C0D4
:1005E400B60180E390E00E949809A2FE17C0A1FC26
:1005F40003C088E790E002C088E590E0B6010CC033
:100604008A2D867859F0A1FE02C08BE201C080E2F7
:10061400A7FC8DE2B60190E00E9498094B1438F4CF
:10062400B60180E390E00E949809BA94F7CF4A9407
:10063400E1E0F0E0EC0FFD1FE40DF11D8081B60157
:1006440090E00E9498094110F2CF002309F42CCEC7
:10065400B60180E290E00E9498090150F6CFF601BD
:100664008781908502C08FEF9FEF6296CDBFDEBF7A
:10067400DF91CF911F910F91FF90EF90DF90CF907A
:10068400BF90AF909F908F907F906F904F903F90CE
:040694002F90089506
:10069800CF92DF92EF920F931F93CF93DF93EB01EB
:1006A8004CE050E06BE471E40E94110660914F4108
:1006B8007091504180E82DEA31E040E00E94340D0D
:1006C800892B09F086C00BE411E4F801828193813B
:1006D800A0E8AF939F938F931F9284E68F93DF9345
:1006E800CF930E940F0AFE0101900020E9F7CF0185
:1006F80022E030E04FEA51E060E001970E942F0EBF
:10070800F801C680D780F0E8EF2E8E2DB6010E9442
:10071800710E9C016E2DA601CE010E94540CFE01A3
:1007280001900020E9F7CF0122E030E04FEA51E0E4
:1007380060E001970E942F0EF801C084D184F0E890
:10074800EF2E8E2DB6010E94710E9C016E2DA60112
:10075800CE010E94540CFE0101900020E9F7CF0160
:1007680022E030E04FEA51E060E001970E942F0E4E
:10077800F801C284D384F0E8EF2E8E2DB6010E94D2
:10078800710E9C016E2DA601CE010E94540CFE0133
:1007980001900020E9F7CF0122E030E04FEA51E074
:1007A80060E001970E942F0EF801C484D584F0E818
:1007B800EF2E8E2DB6010E94710E9C016E2DA601A2
:1007C800CE010E94540C8DB79EB707968DBF9EBF71
:1007D8000DC029E030E041EB51E060E0CE010E941D
:1007E8002F0E6AEB71E080E00E941009CE01DF91C4
:0E07F800CF911F910F91EF90DF90CF90089559
:10080600CF93DF9340E054E081E0FA01808320E259
:1008160034E0F901108280E494E06DE7FC01608326
:10082600C0E6D4E01882A0E8B4E01C9260EA74E066
:10083600FB011082FA011482F9011482FC01148270
:100846001C8214961C921497FB011482FA01108ADA
:10085600118A128A138A148A158A168A178AF90146
:10086600108A118A128A138A148A158A168A178A96
:10087600FC01108A118A128A138A148A158A168A2A
:10088600178A188A198A1A8A1B8A1C8A1D8A82E084
:100896008E8B1F8A50961C92509751961C92519798
:1008A60052961C92529753961C92539754961C92AA
:1008B600549755961C92559756961C92569757964E
:1008C6001C92FB01108A118A128A138A148A158ACD
:1008D600168A178AE0EEF5E01186118210821482DC
:1008E60016821782108685831282138212868BE700
:1008F6009FE080939845909399458CE79FE080937D
:100906009645909397458DE79FE080939445909305
:1009160095458EE79FE080939245909393458FE7A8
:100926009FE0809390459093914580E89FE0809367
:100936008E4590938F4581E89FE080938C459093F8
:100946008D4582E89FE080938A4590938B4583E8A6
:100956009FE0809388459093894584E89FE0809343
:0C096600864590938745DF91CF9108955E
:100972001F93CF93DF9300D0CDB7DEB71EE7198365
:1009820086EB8A8342E0BE016F5F7F4F88E690E08C
:100992000E94320F87ED96ED0197F1F700C000003B
:1009A200198382E18A8342E0BE016F5F7F4F88E64E
:1009B20090E00E94320F87E893E10197F1F700C0BF
:1009C200000080E4898388E88A8342E0BE016F5F89
:1009D2007F4F88E690E00E94320F83E589838AE0A8
:1009E2008A8342E0BE016F5F7F4F88E690E00E94FB
:1009F200320F84E589838BE08A8342E0BE016F5F18
:100A02007F4F88E690E00E94320F85E5898384E07B
:100A12008A8342E0BE016F5F7F4F88E690E00E94CA
:100A2200320F82E6898384E28A8342E0BE016F5FED
:100A32007F4F88E690E00E94320F80E6898310E5BE
:100A42001A8342E0BE016F5F7F4F88E690E00E940A
:100A5200320F8FE5898381E08A8342E0BE016F5FB6
:100A62007F4F88E690E00E94320F198387E08A83E5
:100A720042E0BE016F5F7F4F88E690E00E94320F36
:100A82000E94D50E0F900F90DF91CF911F91089584
:100A9200CF93DF938091050982FF0CC0E8E7F5E46C
:100AA20086E0858783E08487E0E0F9E085818460E1
:100AB200858337C080910709882381F080910509D9
:100AC20084FF0CC0E8E7F5E485E0858781E0848750
:100AD200E0E0F9E085818061858323C08091080987
:100AE200882381F08091050984FF0CC0E8E7F5E4D2
:100AF20085E0858782E08487E0E0F9E08581806196
:100B020085830FC08091050983FF0BC0E8E7F5E4F8
:100B120086E0858783E08487E0E0F9E0858188606C
:100B22008583C8E7D5E48D8590E0880F991F092E4B
:100B3200000CAA0B8F5B9D4FAF4FFC015A2F0E94F6
:100B4200290FFB0109958D878C85882329F0E09177
:0E0B5200A645F091A7450995DF91CF91089532
:100B60001F920F920FB60F9211240BB60F922F9374
:100B70003F934F935F936F937F938F939F93AF9325
:100B8000BF93CF93DF93EF93FF938091050984FD8B
:100B900007C08091050982FD03C08091050983FD8E
:100BA0000E94490580910509882324F08091050958
:100BB00086FF22C08091050984FD08C08091050947
:100BC00082FD04C08091050983FF03C00E9449058E
:100BD00013C0C8E7D5E48D8590E0880F991F092ED2
:100BE000000CAA0B8F5B9D4FAF4FFC015A2F0E9448
:100BF000290FFB0109958D87FF91EF91DF91CF912F
:100C0000BF91AF919F918F917F916F915F914F9124
:100C10003F912F910F900BBE0F900FBE0F901F9022
:020C2000189525
:100C22002F923F924F926F927F928F92AF92BF928A
:100C3200CF92DF92EF92FF920F931F93CF93DF93A6
:100C4200EC015A01FB0180839183423051057CF112
:100C52006B0182E0C80ED11CEE24E394F12C18C083
:100C6200842DB1010E94710E8C01882DB3010E9466
:100C7200710E081B190BC00FD11F1992EFEFEE1A5C
:100C8200FE0AF601C193D1936F01AE14BF0499F02D
:100C92001E01F0E84F2E4CE250E0842DB1010E947B
:100CA2005D0E3B01882E672B682BD1F605C0EE2422
:100CB200E394F12C01C07501C7010197DF91CF9137
:100CC2001F910F91FF90EF90DF90CF90BF90AF9068
:0E0CD2008F907F906F904F903F902F900895DD
:100CE000FA01AA27283051F1203181F1E8946F935D
:100CF0006E7F6E5F7F4F8F4F9F4FAF4FB1E03ED003
:100D0000B4E03CD0670F781F891F9A1FA11D680FA0
:100D1000791F8A1F911DA11D6A0F711D811D911DD3
:100D2000A11D20D009F468943F912AE0269F112448
:100D30003019305D3193DEF6CF010895462F4770AC
:100D4000405D4193B3E00FD0C9F7F6CF462F4F7007
:100D5000405D4A3318F0495D31FD4052419302D065
:100D6000A9F7EACFB4E0A69597958795779567950B
:100D7000BA95C9F700976105710508959B01AC010B
:100D80000A2E06945795479537952795BA95C9F732
:0C0D9000620F731F841F951FA01D0895A3
:100D9C001F920F920FB60F9211240BB60F922F9336
:100DAC003F934F935F936F937F938F939F93AF93E7
:100DBC00BF93EF93FF935B9B05C0E0919445F0913B
:100DCC00954509955A9B05C0E0919245F091934544
:100DDC000995599B05C0E0919045F0919145099575
:100DEC00589B05C0E0918E45F0918F4509955C9B11
:100DFC0005C0E0918A45F0918B4509955D9B05C036
:100E0C00E0918845F091894509955E9B05C0E0917C
:100E1C008645F091874509958FEF8BB9FF91EF913E
:100E2C00BF91AF919F918F917F916F915F914F91F6
:100E3C003F912F910F900BBE0F900FBE0F901F90F4
:020E4C001895F7
:100E4E00E091A945F0E0EE0FFF1FE759FE4B10822F
:100E5E0011828091010882FF11C0E091A945F0E056
:100E6E00EE0FFF1FE759FE4B808182608083E09179
:100E7E000840F0910940309709F0099580910108DA
:100E8E0081FF0CC0E0EAF5E4808181608083E0910F
:100E9E000A40F0910B40309709F0099580910108B6
:100EAE0086FF11C0E091A945F0E0EE0FFF1FE75954
:100EBE00FE4B808184608083E0910440F091054078
:100ECE00309709F0099590910008E091A945EF5FE0
:100EDE00EF778091A845E81759F0E093A945F0E027
:100EEE00E759FC4B9083809107408F5F80930740BA
:020EFE00089555
:100F0000E091AD45F0E0EE0FFF1FE759FD4B108279
:100F100011828091210882FF11C0E091AD45F0E07F
:100F2000EE0FFF1FE759FD4B808182608083E091C7
:100F30001040F0911140309709F0099580912108F7
:100F400081FF0CC0E2EAF5E4808181608083E0915A
:100F50001640F0911740309709F0099580912108CB
:100F600086FF11C0E091AD45F0E0EE0FFF1FE7599D
:100F7000FD4B808184608083E0911240F0911340AA
:100F8000309709F0099590912008E091AD45EF5F09
:100F9000EF778091AC45E81759F0E093AD45F0E06C
:100FA000E759FB4B9083809115408F5F80931540EC
:020FB0000895A2
:100FB2008091B445882309F450C01092B44580E270
:100FC200809346046DEC71E080E00E94C90C8CE2D3
:100FD20091E00E94F90E69ED71E080E00E94C90C77
:100FE2008CE291E00E94F90E68EE71E080E00E94CE
:100FF200C90C84E893E00E94F90E68EF71E080E08A
:101002000E94C90C84E690E00E94F90E67EE70E43B
:101012008EE190E40E944C03BC0180E821EB31E0B8
:1010220040E00E94340D892B21F087EE90E40E946B
:10103200120D8091B04581508093B0451F928F93DD
:1010420087E092E0A0E0AF939F938F930E94480EB7
:0C1052000F900F900F900F900F900895DA
:10105E00E0E2F8E085818F77858380E897E08093E2
:10106E000E4090930F4085818F7D858382E99DE0B0
:10107E0080930C4090930D4083E896E08087918793
:10108E0080ED858380EC868383E0878313861486C8
:10109E001686158688E89FE0809310409093114045
:1010AE0089E89FE080931240909313408AE89FE076
:1010BE0080931640909317401092A2451092A3452C
:1010CE001092AF451092AE4580E880931440109276
:1010DE00AD451092AC451092154085818068858390
:0E10EE0089E695E480936541909366410895EC
:1010FC00E0E0F8E085818F77858387E297E0809345
:10110C0000409093014085818F7D858386E79DE02B
:10111C00809302409093034083E896E08087918708
:10112C0080ED858380EC868383E087831386148629
:10113C001686158685E89FE08093084090930940B9
:10114C0086E89FE0809304409093054087E89FE0F9
:10115C0080930A4090930B401092A0451092A145A9
:10116C001092AB451092AA4580E8809306401092ED
:10117C00A9451092A8451092074085818068858307
:02118C000895C4
:10118E000E94830E0E94B90482E79FE00E94680FBE
:10119E0080E59FE00E945E0F84EE9AE00E94420F6F
:1011AE008DE69FE00E94490F62E272E080E00E94AD
:1011BE00100900E414E0D0E40F2EF5E0FF2EF02D20
:1011CE00CBE0CA3019F0CB3039F00BC00E94D907F2
:1011DE00F801D683CAE009C00E94430BF801D583FB
:1011EE0004C00E94430BF801D5838091B245882339
:1011FE0039F01092B2458091B0458111E7CF04C00D
:10120E008091B0458111DDCFF092B0451092B1457D
:02121E00D7CF28
:10122000CF92DF92EF920F931F93CF93DF93E091D2
:101230006541F0916641948191FF2EC06B01E82ECB
:10124000D0E0C0E003E611E4F6015E2D0E94570FE6
:10125000862F6623A1F0D80112966D917C91139789
:10126000DB011996ED91FC911A970995892B11F0E4
:10127000DFEFCFEFBFEFCB1ADB0AEB0AE5CF6091D0
:10128000654170916641DB011996ED91FC911A97C9
:101290008AE00995892B19F08FEF9FEF02C08D2FFF
:1012A0009C2FDF91CF911F910F91EF90DF90CF9006
:0212B00008959F
:1012B2001F920F920FB60F9211240BB60F922F931B
:1012C2003F934F935F936F937F938F939F93AF93CC
:1012D200BF93EF93FF938091430180FF07C0E0919A
:1012E2009E45F0919F45309709F009958091430101
:1012F20081FF07C0E0919C45F0919D45309709F030
:10130200099583E080934301FF91EF91BF91AF91E3
:101312009F918F917F916F915F914F913F912F910B
:0E1322000F900BBE0F900FBE0F901F901895EE
:101330000F931F93CF93DF93FB01248121FD03C003
:101340008FEF9FEF2CC022FF16C04781508525816B
:1013500036814217530744F4A081B1819D012F5F6C
:101360003F4F208331838C93278130852F5F3F4F00
:101370002783308714C08B01EC01FB010184F285C7
:10138000E02D0995892BE1F6D80117968D919C9156
:101390001897019617968D939C931897CE01DF911D
:0813A000CF911F910F910895F8
:1013A8008091814590918245019731F4E0E0F9E020
:1013B80084818460848305C0E0E0F9E084818B7FC8
:1013C8008483E8E7F5E48185928501978187928790
:1013D800892B79F0A781B085CD0101968783908705
:1013E800E0E0F9E080858C9384818260848384E0E6
:1013F8000895E8E7F5E4A781B085CD0101968783D4
:101408009087E0E0F9E080858C9384818460848310
:061418000E94560D08952C
:10141E000F931F93CF93DF93CDB7DEB72F97CDBF2B
:10142E00DEBF0E891F89888D998D26E02D83098355
:10143E001A8397FF02C080E090E801978E839F8306
:10144E009E01235E3F4F4A8D5B8D6C8DCE010196C2
:10145E000E942A014E815F8157FD0AC02885398579
:10146E00421753070CF49A01F801E20FF31F108292
:10147E002F96CDBFDEBFDF91CF911F910F910895B3
:10148E0040E068ED80E690E00E94630F40E068ED7A
:10149E0081E690E00E94630F40E068ED82E690E006
:1014AE000E94630F40E068ED83E690E00E94630FB8
:1014BE004CE068ED88E690E00E94630F40E068ED36
:1014CE0089E690E00E94630F40E068ED88E790E0C7
:1014DE000E94630F40E068ED80E790E00E94630F8A
:0E14EE0040E068ED8CE790E00E94630F0895E7
:1014FC001F920F920FB60F9211240BB60F922F93CF
:10150C003F934F935F936F937F938F939F93AF937F
:10151C00BF93EF93FF93199B05C0E0919845F09111
:10152C0099450995189B05C0E0919645F091974512
:10153C0009958FEF83B9FF91EF91BF91AF919F9177
:10154C008F917F916F915F914F913F912F910F9060
:0C155C000BBE0F900FBE0F901F90189553
:101568001F920F920FB60F9211240BB60F922F9362
:101578003F934F935F936F937F938F939F93AF9313
:10158800BF93EF93FF93E0919A45F0919B45309775
:1015980009F0099581E080935301FF91EF91BF9184
:1015A800AF919F918F917F916F915F914F913F91F3
:1015B8002F910F900BBE0F900FBE0F901F90189594
:1015C80080910008843219F481E08093B3458091BA
:1015D800B3458823E1F08091A4459091A5459C01ED
:1015E8002F5F3F4F2093A4453093A545E0E0F8E0F6
:1015F8002081DC01A25EBF4B2C9380818A3259F492
:101608001092B3451092A4451092A54504C080914C
:10161800000880931D40809100080E94A30C089543
:101628001F920F920FB60F9211240BB60F922F93A1
:101638003F934F935F936F937F938F939F93AF9352
:10164800BF93EF93FF937E9B05C0E0918C45F0918B
:101658008D4509958FEF8FB9FF91EF91BF91AF91AC
:101668009F918F917F916F915F914F913F912F91B2
:0E1678000F900BBE0F900FBE0F901F90189595
:101686008091B14581112AC063E871E080E00E9433
:10169600C90C8CE291E00E94F90E62E971E080E0EB
:1016A6000E94C90C8CE291E00E94F90E6EE971E08D
:1016B60080E00E94C90C8CE291E00E94F90E80E263
:1016C6008093450481E08093B14521E030E04BEA08
:0E16D60051E060E08EE190E40E942F0E089536
:1016E400CF92DF92EF92FF920F931F93CF93DF93EA
:1016F4006C017B018A010E94E10E811115C0C8E7CB
:10170400D5E481E08883C982DA821B86EB82FC827D
:101714000D831E831F82188619861A861C860E94D2
:10172400200F8D8781E001C080E0DF91CF911F9170
:0C1734000F91FF90EF90DF90CF90089590
:101740001F920F920FB60F9211240BB60F922F9388
:101750003F934F935F936F937F938F939F93AF9339
:10176000BF93EF93FF93E0910040F09101403097D9
:1017700009F00995FF91EF91BF91AF919F918F91E2
:101780007F916F915F914F913F912F910F900BBE81
:0A1790000F900FBE0F901F901895E8
:10179A001F920F920FB60F9211240BB60F922F932E
:1017AA003F934F935F936F937F938F939F93AF93DF
:1017BA00BF93EF93FF93E0910240F091034030977B
:1017CA0009F00995FF91EF91BF91AF919F918F9188
:1017DA007F916F915F914F913F912F910F900BBE27
:0A17EA000F900FBE0F901F9018958E
:1017F4001F920F920FB60F9211240BB60F922F93D4
:101804003F934F935F936F937F938F939F93AF9384
:10181400BF93EF93FF93E0910E40F0910F40309708
:1018240009F00995FF91EF91BF91AF919F918F912D
:101834007F916F915F914F913F912F910F900BBECC
:0A1844000F900FBE0F901F90189533
:10184E001F920F920FB60F9211240BB60F922F9379
:10185E003F934F935F936F937F938F939F93AF932A
:10186E00BF93EF93FF93E0910C40F0910D403097B2
:10187E0009F00995FF91EF91BF91AF919F918F91D3
:10188E007F916F915F914F913F912F910F900BBE72
:0A189E000F900FBE0F901F901895D9
:1018A800CF92DF92EF92CF93DF936A01E62EDC01AD
:1018B800BD016F5F7F4F4C91442311F0DB01F8CFDE
:1018C8002A0F3B1FED01A217B30739F41882DF91E5
:1018D800CF91EF90DF90CF900895F6015E2D0E9492
:1018E800570F6D93662391F34FEFC41AD40AE40A95
:0218F800E9CF36
:1018FA009091050895FD03C08093020819C0909144
:10190A0006409923A9F09091AB459F5F9F77E92FF5
:10191A00F0E0E751FC4B80839093AB45E0E0F8E0C0
:10192A0085818F7D85838091064081508093064012
:0C193A00E0E0F8E085818062858308957C
:101946009091250895FD03C08093220819C09091B7
:1019560014409923A9F09091AF459F5F9F77E92F97
:10196600F0E0E751FB4B80839093AF45E0E2F8E06F
:1019760085818F7D858380911440815080931440AA
:0C198600E0E2F8E085818062858308952E
:10199200CF92DF92EF92A82FCB016C01EA2E2FEFAC
:1019A200C21AD20AE20AFC015A2F0E94570F66237A
:1019B20089F0862F0E947D0C8FEFC81AD80AE80A98
:1019C200AE2DC6010197A109FC015A2F0E94570FA3
:0C19D2006111EFCFEF90DF90CF900895EF
:1019DE0080917D4590917E45892B91F0E8E7F5E465
:1019EE0085819681019785839683A381B481CD01EC
:1019FE000196838394838C918093080983E00895E4
:101A0E0080918345882321F01092834581E00895CB
:061A1E000E94560D089520
:101A2400CF93DF93EC016EE571E080E00E94C90C76
:101A34008CE291E00E94F90E6AE671E080E00E9477
:101A4400C90C88EE93E00E94F90EBE0180E80E9462
:101A5400C90C8AE00E947D0C8AE10E947D0CDF9112
:041A6400CF91089581
:101A6800CF92DF92EF926B01E82EF6015E2D0E9475
:101A7800570F862FF901542F0E94570F86130BC05A
:101A8800882341F08FEFC81AD80AE80A2F5F3F4F22
:101A98004F4FEBCF682F90E0861B9109EF90DF90B6
:041AA800CF9008953E
:101AAC00E0E0F9E0848183608483A8E7B5E41C92CC
:101ABC008FEF90E011968D939C93129713961D9235
:101ACC001C92149717961D921C9218971D961C9297
:101ADC008581806C858385818160858380E0089514
:101AEC0080910640882394F0E091AA45EF5FEF7750
:101AFC00E093AA45F0E0E751FC4B8081809302080B
:101B0C00809106408F5F809306400895E0E0F8E0F6
:081B1C0085818F7D858308950A
:101B240080911440882394F0E091AE45EF5FEF7705
:101B3400E093AE45F0E0E751FB4B808180932208AF
:101B4400809114408F5F809314400895E0E2F8E0A0
:081B540085818F7D85830895D2
:101B5C00CF92DF92EF926B01E82E9A01A82FCB0166
:101B6C002115310531F48C199D09EF90DF90CF9040
:101B7C000895FC015A2F0E94570F6623A1F301967A
:081B8C00A11D21503109ECCF2D
:101B9400E0E4F1E081818111FDCFE0E4F1E08FEF39
:101BA4009FEE848795871086118682879387178294
:101BB40081E0828381E2808381898111FDCF10924B
:041BC400520108952D
:101BC8001F920F920FB60F9211240BB60F928F939C
:101BD800EF93FF93E0E0F8E0848180648483FF91D1
:101BE800EF918F910F900BBE0F900FBE0F901F902B
:021BF80018953E
:101BFA001F920F920FB60F9211240BB60F928F936A
:101C0A00EF93FF93E0E2F8E0848180648483FF919C
:101C1A00EF918F910F900BBE0F900FBE0F901F90F8
:021C2A0018950B
:101C2C00E0E0F9E0108212828EE0868381E083830B
:101C3C001582178214821086848188608483858142
:101C4C00816085838BE89FE08093A6459093A745A0
:021C5C000895E9
:101C5E00CF92DF92EF92DC016A01E62E280F391F38
:101C6E00A217B30751F0F6015E2D0E94570F6D9328
:101C7E004FEFC41AD40AE40AF3CFEF90DF90CF905F
:021C8E000895B7
:101C9000CF93DF93CDB7DEB79E012B5F3F4FF901A6
:101CA0004191519161919F0180916541909166416F
:0A1CB0000E942A01DF91CF910895F0
:101CBA00A82FCB01FC015A2F0E94570F461729F073
:101CCA00662331F00196A11DF5CFBC018A2F089534
:081CDA0060E070E080E0089575
:101CE2009B01482FA82FCB01FC015A2F0E94570FAE
:101CF200662319F00196A11DF7CF642FA901841B59
:041D0200950B0895A0
:101D06000E94470A0E9403040E94160E0E94CA0DF2
:0E1D16000E947E080E942F080E94BC0E0895B5
:101D24001F920F920FB60F9211248F938FEF87B9E2
:0C1D34008F910F900FBE0F901F9018951C
:101D40001F920F920FB60F9211248F938FEF83BBC8
:0C1D50008F910F900FBE0F901F90189500
:101D5C001F920F920FB60F9211248F938FEF87BBA8
:0C1D6C008F910F900FBE0F901F901895E4
:101D780040E068ED80E191E00E94630FE0E1F1E06E
:0A1D880012821382789480E008951F
:101D9200E0E0F9E0848188608483138281E08383B8
:081DA2008581816085830895AD
:101DAA0083E0809304090E94C90E8FE891E00197AD
:081DBA00F1F700C000000895DC
:101DC20080917845811105C08091050980958170C7
:081DD20001C081E08170089559
:101DDA00E0E0F9E083818E7F83838381816083835E
:081DEA001092784580E0089595
:101DF200009741F0E7EEF3E03197F1F700C0000001
:061E02000197C1F70895ED
:101E08008091794590917A45880F81608093070980
:041E180084E00895C5
:101E1C00909114409923E1F30E94A30C80E090E090
:021E2C00089517
:101E2E0010927845E0E0F9E085818160858388E055
:021E3E00089505
:101E40008091794590917A45880F8093070983E0C6
:021E50000895F3
:101E520057FD04C05BBF67917791089561917191BD
:021E62000895E1
:101E640050E0880F991F0E94720B0E94D50E0895AE
:101E7400E0E0F9E08581806C85830E94ED0E089591
:0E1E8400009721F08093004090930140089554
:0E1E9200009721F080930E4090930F4008952A
:0E1EA00081E08093B24580E48093470408956A
:0E1EAE0057FD03C05BBF6791089560810895E2
:0A1EBC0080938C4590938D450895A6
:0A1EC6001BBEFC0164BF40830895B9
:0A1ED00080939E4590939F4508956E
:0A1EDA00809120080E947D0C0895FD
:081EE40081E08093B4450895EC
:061EEC000E94560D08954E
:041EF2000C9400004C
:021EF60008954D
:021EF80008954B
:021EFA00089549
:021EFC00089547
:021EFE00089545
:021F0000089542
:021F0200089540
:021F040008953E
:021F060008953C
:021F080008953A
:021F0A00089538
:021F0C00089536
:021F0E00089534
:021F1000089532
:021F1200089530
:021F140008952E
:021F160008952C
:0F1F18000000000002000000000E0F000000009B
:02000004008278
:090000000000000000C000000037
:00000001FF
