:100000000C9483000C944A100C944A100C94A60A89
:100010000C94010C0C944A100C94CB0B0C944A10C9
:100020000C944A100C944A100C944A100C944A10E8
:100030000C944A100C944A100C944A100C944A10D8
:100040000C944A100C94B3060C944A100C94900C27
:100050000C94BD0C0C94CA0E0C94610C0C944A10B8
:100060000C944A100C944A100C944A100C944A10A8
:100070000C944A100C942D080C944A100C94EA0C21
:100080000C94170D0C94E30E0C948D0F0C944A10E5
:100090000C944A100C944A100C944A100C944A1078
:1000A0000C944A100C944A100C944A100C944A1068
:1000B0000C94710F0C947F0F0C944A100C944A10FE
:1000C0000C944A100C944A100C944A100C944A1048
:1000D0000C944A100C944A100C944A100C944A1038
:1000E0000C944A100C944A1040004599804599455B
:1000F000A80020BA45A845E08045E045E10020C9B8
:1001000045E145E5800011241FBECFEFCDBFDFE7FD
:10011000DEBFE8EEF0E041E019C0B791A79137915A
:100120002791079107FD0EC097918791EF01F92F55
:10013000E82F0BBF07900D92A217B307D9F7FE0166
:100140001BBE04C01D92A217B307E1F7E530F40708
:0E01500021F70E94D0090C94AD00F894FFCF67
:10015E0041542B434D47463D310D0A0041542B432C
:10016E004D47533D222B34303736393239373738F5
:10017E0030220D0A0041542B43474154543D310D5A
:10018E000A0041542B53415042523D332C312C2204
:10019E00436F6E74797065222C2247505253220D94
:1001AE000A0041542B53415042523D332C312C22E4
:1001BE0041504E222C226C6976652E766F646166F4
:1001CE006F6E652E636F6D220D0A0041542B5341E5
:1001DE005042523D312C310D0A0041542B534150A7
:1001EE0042523D322C310D0A0041542B485454508A
:1001FE00494E49540D0A0041542B48545450504115
:10020E0052413D22434944222C310D0A0041542BC8
:10021E0048545450504152413D2255524C222C22AA
:10022E00006C61743D00266C61745F6469723D0000
:10023E00266C6E673D00266C6E675F6469723D00CA
:10024E00220D0A0041542B48545450414354494FF7
:10025E004E3D310D0A0041542B48545450544552D2
:10026E004D0D0A0041542B434950534855540D0A25
:10027E000041542B434750535057523D300D0A0006
:10028E0041542B4346554E3D300D0A0041542B43ED
:10029E0053434C4B3D310D0A00410056616C69646D
:1002AE000A00496E76616C69640A000A5B434F4E20
:1002BE00534F4C455D20494E56414C4944004154E4
:1002CE002B4346554E3D310D0A0041542B434750AA
:1002DE00535057523D310D0A0041542B4347505352
:1002EE004F55543D33320D0A0041542B4347505362
:1002FE004F55543D300D0A000A205B434F4E534F6D
:10030E004C455D2047505320434F554E543A2025BF
:10031E00640A00205B434F4E534F4C455D204D6F9A
:10032E0064756C6520496E697469616C697A65647F
:02033E000D00B0
:10034000687474703A2F2F677073747261636B6591
:10035000726E747A2E303030776562686F737461B4
:1003600070702E636F6D2F677073646174612E708F
:0403700068703F0072
:10037400E10FD70FEA0FDE0D210B47100510230EF6
:02038400A80FC0
:100386002F923F924F926F927F928F929F92AF924F
:10039600BF92CF92DF92EF92FF920F931F93CF936C
:1003A600DF93CDB7DEB76297CDBFDEBF6C013A01F2
:1003B600862E7901FC0117821086848181FFEBC1AC
:1003C6009E012F5F3F4F2C873D87C901A0E8888B90
:1003D600998BAA8B9FE3992EF301582D0E94221028
:1003E600862F662309F4D3C1482D93012F5F3F4F13
:1003F6004F4F653219F03901842E0BC0F901542F85
:100406000E942210862F92E0690E711C811C6532B3
:1004160029F4B60190E00E94E50ADECFB12C00E097
:1004260010E01032A0F48B3269F030F4803259F0CB
:10043600833269F410612CC08D3239F0803339F47F
:10044600116026C01260146023C0186021C017FD19
:100456002AC090ED980F9A3078F416FF06C0AAE0ED
:10046600BA9E900D1124B92E13C0EAE00E9F900D8E
:100476001124092F10620CC08E3221F416FD87C19B
:10048600106406C08C3611F4106802C0883659F420
:10049600F301582D0E942210862FFFEF6F1A7F0A54
:1004A6008F0A6111BECF982F9F7D9554933028F403
:1004B60024E0E20EF11C99820FC0833631F08337B7
:1004C60091F0833509F064C027C0F70180818983E4
:1004D60097012E5F3F4F7901288839884A88AA24D8
:1004E600A394B12C17C0A7014D5F5F4F4E875F875E
:1004F600F70120803180428016FF03C04B2D50E06B
:1005060002C04FEF5FEF842DB1010E947B0E5C01AC
:10051600EE84FF841F7718C097012D5F3F4F2E870B
:100526003F87F70120803180428016FF03C04B2DA4
:1005360050E002C04FEF5FEF842DB1010E947B0EA9
:100546005C011068EE84FF8413FD1EC0802F90E0CE
:10055600A816B906C8F4B60180E290E00E94E50A42
:100566000150F4CFF101542D0E942210862FFFEF87
:100576002F1A3F0A4F0AB60190E00E94E50A0111C0
:10058600015021E0A21AB108A114B10459F7F5C02F
:10059600843611F0893671F5F70117FF08C06081BE
:1005A60071818281938197012C5F3F4F09C06081E1
:1005B6007181072E000C880B990B97012E5F3F4F18
:1005C60079011F76312E97FF0AC090958095709518
:1005D60061957F4F8F4F9F4F312F3068332E2AE022
:1005E60030E0AE014F5F5F4F0E947307482E4C8587
:1005F600441A4AC0853729F41F7EA12E2AE030E02E
:1006060025C0512F597FA52E8F36C1F018F4883595
:1006160079F0BDC0803719F0883721F0B8C0852F32
:100626008061A82EA4FE0DC09A2D9460A92E09C043
:1006360014FF0AC0A52FA660AA2E06C028E030E047
:1006460005C020E130E002C020E132E0F701A7FE5C
:1006560008C06081718182819381A7014C5F5F4FE1
:1006660007C06081718180E090E0A7014E5F5F4F17
:100676007A01AE014F5F5F4F0E947307482E5C857B
:10068600451A8A2D8F77382E36FE0DC0932D9E7F04
:10069600A92E4B1458F434FE0BC032FC09C0A32D0E
:1006A600AE7EAA2E05C0142DA32C03C0142D01C0A6
:1006B6001B2DA4FE0EC0FE01E40DF11D80818033CA
:1006C60021F4EA2DE97EAE2E08C0A2FE05C01E5F0B
:1006D60004C08A2D867809F01F5FA3FC11C0A0FE16
:1006E60006C0101788F4040DB02EB11A0EC01017EC
:1006F60060F4B60180E290E00E94E50A1F5FF7CF42
:10070600101718F4011B02C0B42C00E0A4FE10C0A0
:10071600B60180E390E00E94E50AA2FE17C0A1FCA4
:1007260003C088E790E002C088E590E0B6010CC0FF
:100736008A2D867859F0A1FE02C08BE201C080E2C4
:10074600A7FC8DE2B60190E00E94E50A4B1438F44E
:10075600B60180E390E00E94E50ABA94F7CF4A9486
:10076600E1E0F0E0EC0FFD1FE40DF11D8081B60124
:1007760090E00E94E50A4110F2CF002309F42CCE46
:10078600B60180E290E00E94E50A0150F6CFF6013C
:100796008781908502C08FEF9FEF6296CDBFDEBF47
:1007A600DF91CF911F910F91FF90EF90DF90CF9047
:1007B600BF90AF909F908F907F906F904F903F909B
:0407C6002F900895D3
:1007CA00CF93DF9340E054E081E0FA01808320E296
:1007DA0034E0F901108280E494E06DE7FC01608363
:1007EA00C0E6D4E01882A0E8B4E01C9260EA74E0A3
:1007FA00FB011082FA011482F9011482FC011482AD
:10080A001C8214961C921497FB011482FA01108A16
:10081A00118A128A138A148A158A168A178AF90182
:10082A00108A118A128A138A148A158A168A178AD2
:10083A00FC01108A118A128A138A148A158A168A66
:10084A00178A188A198A1A8A1B8A1C8A1D8A82E0C0
:10085A008E8B1F8A50961C92509751961C925197D4
:10086A0052961C92529753961C92539754961C92E6
:10087A00549755961C92559756961C92569757968A
:10088A001C92FB01108A118A128A138A148A158A09
:10089A00168A178AE0EEF5E0118611821082148218
:1008AA0016821782108685831282138212868DE43D
:1008BA0090E18093CA459093CB458EE490E1809372
:1008CA00C8459093C9458FE490E18093C6459093BB
:1008DA00C74580E590E18093C4459093C54581E57D
:1008EA0090E18093C2459093C34582E590E180935D
:1008FA00C0459093C14583E590E18093BE459093AE
:10090A00BF4584E590E18093BC459093BD4585E55C
:10091A0090E18093BA459093BB4586E590E1809338
:0C092A00B8459093B945DF91CF91089536
:10093600CF92DF92EF92FF920F931F93CF93DF93A5
:100946006C017B018A01E90163E871E080E00E94A5
:10095600B80D8CE291E00E94CC0F60E971E080E076
:100966000E94B80D8CE291E00E94CC0F60EB71E022
:1009760080E00E94B80D8CE291E00E94CC0F69EDF8
:1009860071E080E00E94B80D8CE291E00E94CC0FED
:1009960068EE71E080E00E94B80D8CE291E00E9462
:1009A600CC0F67EF71E080E00E94B80D8CE291E019
:1009B6000E94CC0F65E072E080E00E94B80D8CE2E8
:1009C60091E00E94CC0F6BE172E080E00E94B80DCE
:1009D60060E473E080E00E94B80D6FE272E080E0B0
:1009E6000E94B80DB60180E80E94B80D64E372E07B
:1009F60080E00E94B80DB70180E80E94B80D6EE352
:100A060072E080E00E94B80DB80180E80E94B80D3F
:100A160064E472E080E00E94B80DBE0180E80E94A6
:100A2600B80D6EE472E080E00E94B80D8CE291E0B1
:100A36000E94CC0F62E572E080E00E94B80D8CE265
:100A460091E00E94CC0F64E672E080E00E94B80D4F
:100A56008CE291E00E94CC0F62E772E080E00E9497
:100A6600B80D8CE291E00E94CC0FDF91CF911F91DF
:0C0A76000F91FF90EF90DF90CF9008955B
:100A82001F93CF93DF9300D0CDB7DEB71EE7198354
:100A920086EB8A8342E0BE016F5F7F4F88E690E07B
:100AA2000E94291087ED96ED0197F1F700C0000032
:100AB200198382E18A8342E0BE016F5F7F4F88E63D
:100AC20090E00E94291087E893E10197F1F700C0B6
:100AD200000080E4898388E88A8342E0BE016F5F78
:100AE2007F4F88E690E00E94291083E589838AE09F
:100AF2008A8342E0BE016F5F7F4F88E690E00E94EA
:100B0200291084E589838BE08A8342E0BE016F5F0E
:100B12007F4F88E690E00E94291085E5898384E072
:100B22008A8342E0BE016F5F7F4F88E690E00E94B9
:100B3200291082E6898384E28A8342E0BE016F5FE4
:100B42007F4F88E690E00E94291080E6898310E5B5
:100B52001A8342E0BE016F5F7F4F88E690E00E94F9
:100B620029108FE5898381E08A8342E0BE016F5FAD
:100B72007F4F88E690E00E942910198387E08A83DC
:100B820042E0BE016F5F7F4F88E690E00E9429102D
:100B92000E94C00F0F900F90DF91CF911F91089587
:100BA200CF92DF92FF921F93CF93DF936B014CE0C2
:100BB20050E06BE771E40E94140760917F417091ED
:100BC200804180E827EA32E040E00E94010E892B52
:100BD20009F04CC027E030E049EA52E060E0C6018B
:100BE2000E94FC0ECBE7D1E48E819F81A0E8AF93F7
:100BF2009F938F931F921AE01F938DE691E49F9328
:100C02008F930E945C0B8A859B85A0E8AF939F938C
:100C12008F931F921F9383E691E49F938F930E9479
:100C22005C0B88859985A0E8AF939F938F931F9261
:100C32006894FF24F1F8FF9289E791E49F938F93E0
:100C42000E945C0B8C859D85A0E8AF939F938F9348
:100C52001F92FF9287E791E49F938F930E945C0B10
:100C62008DB79EB74C968DBF9EBF0DC029E030E078
:100C720040EB52E060E0C6010E94FC0E69EB72E0BC
:100C820080E00E94190AC601DF91CF911F91FF9067
:060C9200DF90CF900895F1
:100C9800CF93DF938091050982FF0CC0E8EAF5E461
:100CA80086E0858783E08487E0E0F9E085818460D9
:100CB800858337C080910709882381F080910509D1
:100CC80084FF0CC0E8EAF5E485E0858781E0848745
:100CD800E0E0F9E085818061858323C0809108097F
:100CE800882381F08091050984FF0CC0E8EAF5E4C7
:100CF80085E0858782E08487E0E0F9E0858180618E
:100D080085830FC08091050983FF0BC0E8EAF5E4ED
:100D180086E0858783E08487E0E0F9E08581886064
:100D28008583C8EAD5E48D8590E0880F991F092E40
:100D3800000CAA0B8C589C4FAF4FFC015A2F0E94F5
:100D4800FC0FFB0109958D878C85882329F0E0919C
:0E0D5800B645F091B7450995DF91CF9108950A
:100D66001F920F920FB60F9211240BB60F922F936C
:100D76003F934F935F936F937F938F939F93AF931D
:100D8600BF93CF93DF93EF93FF938091050984FD83
:100D960007C08091050982FD03C08091050983FD86
:100DA6000E944C0680910509882324F0809105094C
:100DB60086FF22C08091050984FD08C0809105093F
:100DC60082FD04C08091050983FF03C00E944C0682
:100DD60013C0C8EAD5E48D8590E0880F991F092EC7
:100DE600000CAA0B8C589C4FAF4FFC015A2F0E9447
:100DF600FC0FFB0109958D87FF91EF91DF91CF9154
:100E0600BF91AF919F918F917F916F915F914F911C
:100E16003F912F910F900BBE0F900FBE0F901F901A
:020E260018951D
:100E28002F923F924F926F927F928F92AF92BF9282
:100E3800CF92DF92EF92FF920F931F93CF93DF939E
:100E4800EC015A01FB0180839183423051057CF10A
:100E58006B0182E0C80ED11CEE24E394F12C18C07B
:100E6800842DB1010E94500F8C01882DB3010E947E
:100E7800500F081B190BC00FD11F1992EFEFEE1A74
:100E8800FE0AF601C193D1936F01AE14BF0499F025
:100E98001E01F0E84F2E4CE250E0842DB1010E9473
:100EA8002A0F3B01882E672B682BD1F605C0EE244C
:100EB800E394F12C01C07501C7010197DF91CF912F
:100EC8001F910F91FF90EF90DF90CF90BF90AF9060
:0E0ED8008F907F906F904F903F902F900895D5
:100EE600FA01AA27283051F1203181F1E8946F9355
:100EF6006E7F6E5F7F4F8F4F9F4FAF4FB1E03ED0FB
:100F0600B4E03CD0670F781F891F9A1FA11D680F98
:100F1600791F8A1F911DA11D6A0F711D811D911DCB
:100F2600A11D20D009F468943F912AE0269F112440
:100F36003019305D3193DEF6CF010895462F4770A4
:100F4600405D4193B3E00FD0C9F7F6CF462F4F70FF
:100F5600405D4A3318F0495D31FD4052419302D05D
:100F6600A9F7EACFB4E0A695979587957795679503
:100F7600BA95C9F700976105710508959B01AC0103
:100F86000A2E06945795479537952795BA95C9F72A
:0C0F9600620F731F841F951FA01D08959B
:100FA2008091E445882309F456C01092E44580E21A
:100FB200809346046CEC72E080E00E94B80D88EBEE
:100FC2009BE00E94CC0F68ED72E080E00E94B80DB9
:100FD2008CE291E00E94CC0F67EE72E080E00E940A
:100FE200B80D84E893E00E94CC0F67EF72E080E0D6
:100FF2000E94B80D84E690E00E94CC0F6EEF70E480
:1010020086E390E40E94D105BC0180E820EB32E047
:1010120040E00E94010E892B51F027E731E443E6BC
:1010220051E469E771E48DE691E40E949B048091AA
:10103200E04581508093E0451F928F9386E093E0D4
:10104200A0E0AF939F938F930E94150F0F900F9084
:081052000F900F900F9008951C
:10105A001F920F920FB60F9211240BB60F922F9375
:10106A003F934F935F936F937F938F939F93AF9326
:10107A00BF93EF93FF935B9B05C0E091C645F09148
:10108A00C74509955A9B05C0E091C445F091C545ED
:10109A000995599B05C0E091C245F091C345099550
:1010AA00589B05C0E091C045F091C14509955C9BEC
:1010BA0005C0E091BC45F091BD4509955D9B05C011
:1010CA00E091BA45F091BB4509955E9B05C0E09158
:1010DA00B845F091B94509958FEF8BB9FF91EF911A
:1010EA00BF91AF919F918F917F916F915F914F9136
:1010FA003F912F910F900BBE0F900FBE0F901F9034
:02110A00189536
:10110C00E091D945F0E0EE0FFF1FE756FE4B108241
:10111C0011828091010882FF11C0E091D945F0E065
:10112C00EE0FFF1FE756FE4B808182608083E091BB
:10113C000840F0910940309709F009958091010819
:10114C0081FF0CC0E2EDF5E4808181608083E09149
:10115C000A40F0910B40309709F0099580910108F5
:10116C0086FF11C0E091D945F0E0EE0FFF1FE75666
:10117C00FE4B808184608083E0910440F0910540B7
:10118C00309709F0099590910008E091D945EF5FEF
:10119C00EF778091D845E81759F0E093D945F0E006
:1011AC00E756FC4B9083809107408F5F80930740FC
:0211BC00089594
:1011BE00E091DD45F0E0EE0FFF1FE756FD4B10828C
:1011CE0011828091210882FF11C0E091DD45F0E08F
:1011DE00EE0FFF1FE756FD4B808182608083E0910A
:1011EE001040F0911140309709F009958091210837
:1011FE0081FF0CC0E4EDF5E4808181608083E09195
:10120E001640F0911740309709F00995809121080A
:10121E0086FF11C0E091DD45F0E0EE0FFF1FE756AF
:10122E00FD4B808184608083E0911240F0911340E9
:10123E00309709F0099590912008E091DD45EF5F18
:10124E00EF778091DC45E81759F0E093DD45F0E04B
:10125E00E756FB4B9083809115408F5F809315402E
:02126E000895E1
:10127000E0E2F8E085818F7785838FED98E08093B9
:101280000E4090930F4085818F7D85838FE59EE092
:1012900080930C4090930D4083E896E0808791877F
:1012A00080ED858380EC868383E0878313861486B4
:1012B000168615868AE590E1809310409093114040
:1012C0008BE590E180931240909313408CE590E180
:1012D00080931640909317401092D4451092D545B4
:1012E0001092DF451092DE4580E880931440109202
:1012F000DD451092DC45109215408581806885831C
:0E13000089E995E48093954190939641089574
:10130E00E0E0F8E085818F77858386E898E080932A
:10131E0000409093014085818F7D858383E49EE01C
:10132E00809302409093034083E896E080879187F4
:10133E0080ED858380EC868383E087831386148615
:10134E001686158687E590E18093084090930940B4
:10135E0088E590E1809304409093054089E590E103
:10136E0080930A4090930B401092D2451092D34531
:10137E001092DB451092DA4580E880930640109279
:10138E00D9451092D8451092074085818068858393
:02139E000895B0
:1013A0000E94620F0E94410583E490E10E9439107F
:1013B0008BE190E10E942F1081E39CE00E940D10D0
:1013C0008EE390E10E94141061E273E080E00E94DD
:1013D000190A00E414E0D0E40F2EF5E0FF2EF02D02
:1013E000CBE0CA3019F0CB3039F00BC00E94D107E6
:1013F000F801D683CAE009C00E94440DF801D583E4
:1014000004C00E94440DF801D5838091E2458823F1
:1014100039F01092E2458091E0458111E7CF04C098
:101420008091E0458111DDCFF092E0451092E145D9
:02143000D7CF14
:10143200CF92DF92EF920F931F93CF93DF93E091BE
:101442009541F0919641948191FF2EC06B01E82E57
:10145200D0E0C0E003E911E4F6015E2D0E94221003
:10146200862F6623A1F0D80112966D917C91139775
:10147200DB011996ED91FC911A970995892B11F0D0
:10148200DFEFCFEFBFEFCB1ADB0AEB0AE5CF6091BC
:10149200954170919641DB011996ED91FC911A9755
:1014A2008AE00995892B19F08FEF9FEF02C08D2FEB
:1014B2009C2FDF91CF911F910F91EF90DF90CF90F2
:0214C20008958B
:1014C400CF92DF92EF92FF920F931F93CF93DF930C
:1014D4008B01C42F8E7F809307090E943E0F8130B9
:1014E400F9F4CC2301F10115110501F1C150D0E04B
:1014F4002196E12CF12C0F2EC12CF9E0DF2EF02DDA
:10150400F80181918F01F60180870E943E0F81309E
:1015140081F4FFEFEF1AFF0ACE15DF0589F70AC041
:10152400CFEFDFEF07C0C0E0D0E004C0C0E0D0E000
:1015340001C0E701CE01DF91CF911F910F91FF9080
:08154400EF90DF90CF900895B5
:10154C001F920F920FB60F9211240BB60F922F937E
:10155C003F934F935F936F937F938F939F93AF932F
:10156C00BF93EF93FF938091430180FF07C0E091FD
:10157C00D045F091D145309709F009958091430100
:10158C0081FF07C0E091CE45F091CF45309709F02F
:10159C00099583E080934301FF91EF91BF91AF9147
:1015AC009F918F917F916F915F914F913F912F916F
:0E15BC000F900BBE0F900FBE0F901F90189552
:1015CA000F931F93CF93DF93FB01248121FD03C067
:1015DA008FEF9FEF2CC022FF16C0478150852581CF
:1015EA0036814217530744F4A081B1819D012F5FD0
:1015FA003F4F208331838C93278130852F5F3F4F64
:10160A002783308714C08B01EC01FB010184F2852A
:10161A00E02D0995892BE1F6D80117968D919C91B9
:10162A001897019617968D939C931897CE01DF9180
:08163A00CF911F910F9108955B
:101642008091B1459091B245019731F4E0E0F9E023
:1016520084818460848305C0E0E0F9E084818B7F2B
:101662008483E8EAF5E481859285019781879287F0
:10167200892B79F0A781B085CD0101968783908768
:10168200E0E0F9E080858C9384818260848384E049
:101692000895E8EAF5E4A781B085CD010196878334
:1016A2009087E0E0F9E080858C9384818460848374
:0616B2000E94230E0895C2
:1016B8000F931F93CF93DF93CDB7DEB72F97CDBF8F
:1016C800DEBF0E891F89888D998D26E02D830983B9
:1016D8001A8397FF02C080E090E801978E839F836A
:1016E8009E01235E3F4F4A8D5B8D6C8DCE01019626
:1016F8000E94C3014E815F8157FD0AC02885398544
:10170800421753070CF49A01F801E20FF31F1082F5
:101718002F96CDBFDEBFDF91CF911F910F91089516
:1017280040E068ED80E690E00E94341040E068ED0B
:1017380081E690E00E94341040E068ED82E690E097
:101748000E94341040E068ED83E690E00E94341077
:101758004CE068ED88E690E00E94341040E068EDC7
:1017680089E690E00E94341040E068ED88E790E058
:101778000E94341040E068ED80E790E00E94341049
:0E17880040E068ED8CE790E00E943410089578
:101796001F920F920FB60F9211240BB60F922F9332
:1017A6003F934F935F936F937F938F939F93AF93E3
:1017B600BF93EF93FF93199B05C0E091CA45F09143
:1017C600CB450995189B05C0E091C845F091C945E0
:1017D60009958FEF83B9FF91EF91BF91AF919F91DB
:1017E6008F917F916F915F914F913F912F910F90C4
:0C17F6000BBE0F900FBE0F901F901895B7
:101802001F920F920FB60F9211240BB60F922F93C5
:101812003F934F935F936F937F938F939F93AF9376
:10182200BF93EF93FF93E091CC45F091CD45309774
:1018320009F0099581E080935301FF91EF91BF91E7
:10184200AF919F918F917F916F915F914F913F9156
:101852002F910F900BBE0F900FBE0F901F901895F7
:1018620080910008843219F481E08093E3458091ED
:10187200E3458823E1F08091D6459091D7459C01BC
:101882002F5F3F4F2093D6453093D745E0E0F8E0F5
:101892002081DC01AA5CBF4B2C9380818A3259F4EF
:1018A2001092E3451092D6451092D74504C080911C
:1018B200000880931D40809100080E94920D0895B7
:1018C2001F920F920FB60F9211240BB60F922F9305
:1018D2003F934F935F936F937F938F939F93AF93B6
:1018E200BF93EF93FF937E9B05C0E091BE45F091BD
:1018F200BF4509958FEF8FB9FF91EF91BF91AF91DE
:101902009F918F917F916F915F914F913F912F9115
:0E1912000F900BBE0F900FBE0F901F901895F8
:101920001F920F920FB60F9211240BB60F922F93A6
:101930003F934F935F936F937F938F939F93AF9357
:10194000BF93EF93FF93E0910040F09101403097F7
:1019500009F00995FF91EF91BF91AF919F918F9100
:101960007F916F915F914F913F912F910F900BBE9F
:0A1970000F900FBE0F901F90189506
:10197A001F920F920FB60F9211240BB60F922F934C
:10198A003F934F935F936F937F938F939F93AF93FD
:10199A00BF93EF93FF93E0910240F0910340309799
:1019AA0009F00995FF91EF91BF91AF919F918F91A6
:1019BA007F916F915F914F913F912F910F900BBE45
:0A19CA000F900FBE0F901F901895AC
:1019D4001F920F920FB60F9211240BB60F922F93F2
:1019E4003F934F935F936F937F938F939F93AF93A3
:1019F400BF93EF93FF93E0910E40F0910F40309727
:101A040009F00995FF91EF91BF91AF919F918F914B
:101A14007F916F915F914F913F912F910F900BBEEA
:0A1A24000F900FBE0F901F90189551
:101A2E001F920F920FB60F9211240BB60F922F9397
:101A3E003F934F935F936F937F938F939F93AF9348
:101A4E00BF93EF93FF93E0910C40F0910D403097D0
:101A5E0009F00995FF91EF91BF91AF919F918F91F1
:101A6E007F916F915F914F913F912F910F900BBE90
:0A1A7E000F900FBE0F901F901895F7
:101A88008091E145811123C06FE772E080E00E94F8
:101A9800B80D8CE291E00E94CC0F6EE872E080E015
:101AA8000E94B80D8CE291E00E94CC0F6AE972E0C6
:101AB80080E00E94B80D8CE291E00E94CC0F80E299
:101AC8008093450481E08093E14510923640089563
:101AD8009091050895FD03C08093020819C0909164
:101AE80006409923A9F09091DB459F5F9F77E92FE6
:101AF800F0E0E75EFB4B80839093DB45E0E0F8E0A5
:101B080085818F7D85838091064081508093064032
:0C1B1800E0E0F8E085818062858308959C
:101B24009091250895FD03C08093220819C09091D7
:101B340014409923A9F09091DF459F5F9F77E92F87
:101B4400F0E0E75EFA4B80839093DF45E0E2F8E053
:101B540085818F7D858380911440815080931440CA
:0C1B6400E0E2F8E085818062858308954E
:101B7000CF92DF92EF92A82FCB016C01EA2E2FEFCC
:101B8000C21AD20AE20AFC015A2F0E9422106623CE
:101B900089F0862F0E946C0D8FEFC81AD80AE80AC8
:101BA000AE2DC6010197A109FC015A2F0E942210F7
:0C1BB0006111EFCFEF90DF90CF9008950F
:101BBC008091AD459091AE45892B91F0E8EAF5E422
:101BCC0085819681019785839683A381B481CD010C
:101BDC000196838394838C918093080983E0089504
:101BEC008091B345882321F01092B34581E008958C
:061BFC000E94230E089573
:101C0200CF92DF92EF926B01E82EF6015E2D0E94D9
:101C12002210862FF901542F0E94221086130BC026
:101C2200882341F08FEFC81AD80AE80A2F5F3F4F86
:101C32004F4FEBCF682F90E0861B9109EF90DF901A
:041C4200CF900895A2
:101C4600E0E0F9E0848183608483A8EAB5E41C922D
:101C56008FEF90E011968D939C93129713961D9299
:101C66001C92149717961D921C9218971D961C92FB
:101C76008581806C858385818160858380E0089578
:101C860080910640882394F0E091DA45EF5FEF7784
:101C9600E093DA45F0E0E75EFB4B80818093020833
:101CA600809106408F5F809306400895E0E0F8E05B
:081CB60085818F7D858308956F
:101CBE0080911440882394F0E091DE45EF5FEF773A
:101CCE00E093DE45F0E0E75EFA4B808180932208D8
:101CDE00809114408F5F809314400895E0E2F8E005
:081CEE0085818F7D8583089537
:101CF600CF92DF92EF926B01E82E9A01A82FCB01CB
:101D06002115310531F48C199D09EF90DF90CF90A4
:101D16000895FC015A2F0E9422106623A1F3019612
:081D2600A11D21503109ECCF91
:101D2E00E0E4F1E081818111FDCFE0E4F1E08FEF9D
:101D3E009FEE8487958710861186828793871782F8
:101D4E0081E0828381E2808381898111FDCF1092AF
:041D5E005201089591
:101D6200E0E0F9E0108212828EE0868381E88383CC
:101D7200158217821482108684818860848385810B
:101D8200816085838CE490E18093B6459093B7455A
:021D92000895B2
:101D94001F920F920FB60F9211240BB60F928F93CE
:101DA400EF93FF93E0E0F8E0848180648483FF9103
:101DB400EF918F910F900BBE0F900FBE0F901F905D
:021DC400189570
:101DC6001F920F920FB60F9211240BB60F928F939C
:101DD600EF93FF93E0E2F8E0848180648483FF91CF
:101DE600EF918F910F900BBE0F900FBE0F901F902B
:021DF60018953E
:101DF800CF92DF92EF92DC016A01E62E280F391F9D
:101E0800A217B30751F0F6015E2D0E9422106D93C0
:101E18004FEFC41AD40AE40AF3CFEF90DF90CF90C3
:021E280008951B
:101E2A00CF93DF93CDB7DEB79E012B5F3F4FF9010A
:101E3A004191519161919F01809195419091964173
:0A1E4A000E94C301DF91CF910895BB
:101E5400A82FCB01FC015A2F0E942210461729F00B
:101E6400662331F00196A11DF5CFBC018A2F089598
:081E740060E070E080E00895D9
:101E7C00E0E0F9E08581807C31F08091050984FFF8
:101E8C0007C082E0089585818C70A1F384E00895E9
:041E9C0081E0089544
:101EA0009B01482FA82FCB01FC015A2F0E94221022
:101EB000662319F00196A11DF7CF642FA901841B99
:041EC000950B0895E1
:101EC4000E94940B0E94E5030E94B10E0E94970E9B
:0E1ED4000E9487090E9438090E949B0F089502
:101EE2001F920F920FB60F9211248F938FEF87B923
:0C1EF2008F910F900FBE0F901F9018955D
:101EFE001F920F920FB60F9211248F938FEF83BB09
:0C1F0E008F910F900FBE0F901F90189540
:101F1A001F920F920FB60F9211248F938FEF87BBE8
:0C1F2A008F910F900FBE0F901F90189524
:101F360040E068ED80E191E00E943410E0E1F1E0DC
:0A1F460012821382789480E008955F
:101F5000E0E0F9E083818E7F8383838181608383E6
:081F60001092A84580E00895ED
:101F6800E0E0F9E0848188608483138281E08383E0
:081F78008581816085830895D5
:101F800083E0809304090E94B40F8FE891E00197E9
:081F9000F1F700C00000089504
:101F9800009741F0E7EEF3E03197F1F700C0000059
:061FA8000197C1F7089546
:101FAE008091A9459091AA45880F81608093070979
:041FBE0084E008951E
:101FC2001092A845E0E0F9E085818160858388E090
:021FD200089570
:101FD4008091A9459091AA45880F8093070983E0D1
:021FE40008955E
:101FE600909114409923E1F30E94920D80E090E0D5
:021FF60008954C
:101FF80057FD04C05BBF6791779108956191719116
:02200800089539
:10200A00E0E0F9E08581806C85830E94A80F08953D
:0E201A00009721F080930040909301400895BC
:0E202800009721F080930E4090930F40089592
:0E20360081E08093E24580E4809347040895A2
:0E20440057FD03C05BBF67910895608108954A
:0C205200880F0E94620A0E94C00F0895CF
:0A205E008093BE459093BF4508959E
:0A2068001BBEFC0164BF4083089515
:0A2072008093D0459093D145089566
:0A207C00809120080E946C0D089569
:0820860081E08093E445089518
:06208E000E94230E0895DC
:042094000C940000A8
:022098000895A9
:02209A000895A7
:02209C000895A5
:02209E000895A3
:0220A0000895A1
:0220A20008959F
:0220A40008959D
:0220A60008959B
:0220A800089599
:0220AA00089597
:0220AC00089595
:0220AE00089593
:0220B000089591
:0220B20008958F
:0220B40008958D
:0220B60008958B
:0220B800089589
:0F20BA00000000000200000000F30F0000000013
:0120C9000511
:02000004008278
:090000000000000000C000000037
:00000001FF
