:100000000C94DB000C9405010C9405010C94050183
:100010000C9405010C9405010C9405010C9419072E
:100020000C9405010C9405010C9405010C94050138
:100030000C9405010C9405010C9405010C94050128
:100040000C9405010C9405010C9405010C94050118
:100050000C9405010C9405010C94FD060C9405010B
:100060000C9405010C9405010C9405010C940501F8
:100070000C9405010C9405010C9405010C94BB062D
:100080000C9405010C9405010C9405010C940501D8
:100090000C9405010C9405010C9405010C940501C8
:1000A0000C9405010C9405010C9405010C940501B8
:1000B0000C9405010C9405010C9405010C940501A8
:1000C0000C9405010C9405010C9405010C94050198
:1000D0000C9405010C9405010C9405010C94050188
:1000E0000C9405010C940501F8021903A403F20312
:1000F00038047A04960407634236B79BD8A71A39A6
:10010000685618AEBAAB558C1D3CB7CC5763BD6D65
:10011000EDFD753EF6177231BF000000803F08000C
:100120000000BE922449123EABAAAA2ABECDCCCC76
:100130004C3E00000080BEABAAAAAA3E0000000010
:10014000BF000000803F0000000000084178D3BBE2
:100150004387D1133D190E3CC3BD4282AD2B3E688F
:10016000EC8276BED98FE1A93E4C80EFFFBE01C480
:10017000FF7F3F00000000004E414E494E49545958
:10018000494E46CDCCCC3D0AD7233C17B7D1387762
:10019000CC2B329595E6241FB14F0A000020410078
:1001A00000C84200401C4620BCBE4CCA1B0E5AAEC2
:1001B000C59D7400470511241FBECFEFCDBFDFE7FB
:1001C000DEBF11E4A0E0B0E4EAE3FDE100E00BBF34
:1001D00002C007900D92A03CB107D9F723E4A0EC30
:1001E000B1E401C01D92AD37B207E1F710E0CBEDED
:1001F000D0E004C02197FE010E94970CCA3DD107B0
:10020000C9F70E945D070C949B0E0C94000081E0DE
:10021000809342420895BF92EF92FF920F931F93F3
:10022000CF93DF93CDB7DEB7A097CDBFDEBF1092DF
:1002300042421092C041209191428DE490E0821B95
:10024000910918161906B4F580918F4200918E42DB
:1002500010E00D5B1D4BF801B080108290E08D5BCB
:100260009D4B0E94B40CF801B08200EC11E4D8015F
:100270000D900020E9F7119720E1E8ECF0E40190FF
:100280000D922A95E1F723E030E0AE014F5F5F4F1A
:100290000E945C08BE016F5F7F4FC8010E94D00CB6
:1002A000F80101900020E9F731978AE09DE0808312
:1002B00091831282209191428DE490E0821B9109FA
:1002C0000297B4F180918E4200918D4210E00D5B57
:1002D0001D4BF801B080108290E08D5B9D4B0E9419
:1002E000B40CF801B08200EC11E4D8010D900020AC
:1002F000E9F7119726E1E8EDF0E401900D922A95D7
:10030000E1F723E030E0AE014F5F5F4F0E945C08F1
:10031000BE016F5F7F4FC8010E94D00CF8010190B1
:100320000020E9F731978AE09DE080839183128273
:10033000809191420DE410E0081B11090330110572
:10034000ACF120918D4230E080918C4290E0821B94
:10035000930B019759F5F901ED5BFD4B90810F2E41
:10036000F0ECEF2EF1E4FF2EF02DD7010D900020E0
:10037000E9F7119786E0EEEEF0E401900D928A9590
:10038000E1F718A29F8FBE01615E7F4FC7010E94F7
:10039000D00CF70101900020E9F7319780E29AE054
:1003A000808391838DE090E08283938304301105F4
:1003B000B4F180918C4200918B4210E00D5B1D4B9B
:1003C000F801B080108290E08D5B9D4B0E94B40CD0
:1003D000F801B08200EC11E4D8010D900020E9F79B
:1003E000119726E1E4EFF0E401900D922A95E1F7F0
:1003F00023E030E0AE014F5F5F4F0E945C08BE011A
:100400006F5F7F4FC8010E94D00CF801019000205F
:10041000E9F731978AE09DE08083918312822091F1
:1004200091428DE490E0821B910905977CF18091C7
:100430008B4290E020918A4230E0281B390B21301A
:10044000310521F5FC01ED5BFD4B908100EC11E4E1
:10045000D8010D900020E9F7119780E1EAE0F1E47E
:1004600001900D928A95E1F718A29F8FBE01615EFF
:100470007F4FC8010E94D00CF80101900020E9F7DD
:1004800031978AE09DE0808391831282A096CDBF50
:10049000DEBFDF91CF911F910F91FF90EF90BF9042
:1004A00008952F923F925F926F927F928F929F92C8
:1004B000AF92BF92CF92DF92EF92FF920F931F9372
:1004C000CF93DF9300D000D0CDB7DEB789839A8376
:1004D00087E091E080939242909393424091A642AC
:1004E000423008F043C0442391F0A6E9B2E4EAE1C7
:1004F000F1E42FE131E48D919191891721F08D3252
:1005000011F09D3221F42E173F07A9F72FC0A42F19
:10051000B0E0AA0FBB1FAA0FBB1FAA0FBB1FAA5692
:10052000BD4B85E0EAE1F1E401900D928A95E1F797
:10053000A6EAB2E42C91822F90E0FC01EE0FFF1F9F
:10054000EE0FFF1FEE0FFF1FE556FD4B1082880FC9
:10055000991F880F991F880F991FFC01E456FD4BC6
:100560008BE091E0808391832F5F2C9309811A8126
:10057000812C912C54010F2EF7EAEF2EF2E4FF2E7E
:10058000F02D0F2EF8EA6F2EF2E47F2EF02D0F2EB5
:10059000F1E92F2EF2E43F2EF02D0F2EF8E4CF2EAE
:1005A000F2E4DF2EF02D0B831C83EB81FC810190A4
:1005B0000020E9F73197CF01AB81BC818A1B9B0BEF
:1005C000A0E0B0E088169906AA06BB0608F04AC269
:1005D000F80151908F01D701EC918E2F90E0873078
:1005E000910508F012C2FC01EC58FF4F0C94970CD7
:1005F000F3011082F4E25F1207C0AAEAB2E41C928F
:1006000081E0F701808315C281E0D3018C93A2E9D8
:10061000B2E4ED91FC91309709F00995F701108251
:10062000A0E9B2E41C928DE4F1018083D3011C9215
:1006300000C2852D90E00E94B80C892B09F442C0BD
:10064000A0E9B2E4EC91D1018C91E81730F5E530E6
:1006500078F481E08E0FA0E9B2E48C93F0E0ED5BDA
:10066000FD4B5082EAEAF2E4808185258083E1C176
:1006700083E0D3018C93A2E9B2E4ED91FC91309731
:1006800009F00995F7011082A0E9B2E41C928DE40B
:10069000F1018083D3011C92CCC182E0F3018083FD
:1006A000A2E9B2E4ED91FC91309709F00995F701C8
:1006B0001082A0E9B2E41C928DE4F1018083D301A1
:1006C0001C92B7C1BAE25B16C1F0ECE25E1227C021
:1006D000AAEAB2E49C918CE289278C93D101EC9137
:1006E000E150EC93F0E0ED5BFD4BA0E9B2E48C91BE
:1006F000808382E0F70180839CC1ABEAB2E41C9264
:10070000D101EC91E150EC93F0E0ED5BFD4BA0E901
:10071000B2E48C91808383E0F70180838AC181E019
:10072000D3018C93A2E9B2E4ED91FC91309709F0EA
:100730000995F7011082A0E9B2E41C928DE4F10161
:100740008083D3011C9275C1E0E9F2E48081D1017C
:10075000EC918E1790F5BAE25B1689F0FCE25F121D
:100760001CC0AAEAB2E42C919CE292279C93E1502F
:10077000D101EC93F0E0ED5BFD4B80835AC1ABEA15
:10078000B2E41C92E150D101EC93F0E0ED5BFD4B43
:10079000808383E0F70180834CC1AAEAB2E49C9194
:1007A00095259C9391E0980FE0E9F2E49083E82F7F
:1007B000F0E0ED5BFD4B50823CC182E0D3018C93B5
:1007C000A2E9B2E4ED91FC91309709F00995F701A7
:1007D0001082A0E9B2E41C928DE4F1018083D30180
:1007E0001C9227C1852D90E0C0970A9718F480EDE0
:1007F000850D1AC0E52DF0E0E983FA83CF010E9450
:10080000C50C892B31F0F6E4F51518F089EC850D4F
:100810000BC089819A810E94C90C892BA1F026E620
:10082000251588F089EA850D8F3F69F030E1839FB7
:10083000C0011124ABEAB2E49C91892B8C9384E033
:10084000F7018083F6C081E0D3018C93A2E9B2E482
:10085000ED91FC91309709F00995F7011082A0E91C
:10086000B2E41C928DE4F1018083D3011C92E1C0BB
:10087000852D90E0C0970A9718F480ED850D1AC079
:10088000E52DF0E0E983FA83CF010E94C50C892BA6
:1008900031F0F6E4F51518F089EC850D0BC089816F
:1008A0009A810E94C90C892B81F026E6251568F0F3
:1008B00089EA850D8F3F49F0ABEAB2E49C91892B20
:1008C0008C9385E0F7018083B4C081E0D3018C93E1
:1008D000A2E9B2E4ED91FC91309709F00995F70196
:1008E0001082A0E9B2E41C928DE4F1018083D3016F
:1008F0001C929FC0BDE05B1204C086E0F7018083BC
:1009000098C081E0D3018C93A2E9B2E4ED91FC910F
:10091000309709F00995F7011082A0E9B2E41C9222
:100920008DE4F1018083D3011C9283C0BAE05B1295
:1009300057C0E9EAF2E48081882399F0ABEAB2E497
:100940009C91EAEAF2E48081981759F084E0D3019F
:100950008C93A2E9B2E4ED91FC913097B1F1099545
:1009600034C0EFE8F2E4408150E0FA01ED5BFD4B6A
:1009700050801082A6EAB2E47C91772309F46DC01E
:1009800026E932E460E0E3E4F2E4D9018D9191914B
:10099000891729F08D3219F09D3209F050C0EC15FD
:1009A000FD05A1F752C0B8E06B02F0011124E45636
:1009B000FD4B0190F081E02D099507C0A4E9B2E458
:1009C000ED91FC91309709F00995F7011082A0E9AB
:1009D000B2E41C928DE4F1018083D3011C9229C002
:1009E00081E0F3018083A2E9B2E4ED91FC913097BC
:1009F00009F00995F7011082A0E9B2E41C928DE498
:100A0000F1018083D3011C9214C085E0F30180833F
:100A1000A2E9B2E4ED91FC91309709F00995F70154
:100A20001082A0E9B2E41C928DE4F1018083D3012D
:100A30001C92BFEF8B1A9B0AAB0ABB0AB6CD6F5F45
:100A4000285F3F4F76139FCF08C0FA01ED5BFD4B47
:100A500050826F3F09F0A7CFB1CFFA01ED5BFD4B9C
:100A60005082ACCF2496CDBFDEBFDF91CF911F91D6
:100A70000F91FF90EF90DF90CF90BF90AF909F903D
:100A80008F907F906F905F903F902F90089510927D
:100A90009242109293421092944210929542109278
:100AA000A6421092A84281E08093A9421092AA42E5
:100AB0001092AB421092A742109290428DE4809324
:100AC00091420895882331F0E0E2F4E0848184606B
:100AD00084830895E0E2F4E0848114820895E0E4E0
:100AE000F4E080818C6C8083A0E2B4E08C918C6017
:100AF0008C9382E08093760480E485830895880F48
:100B00000E9436060E94860608951F93CF93DF93B6
:100B100000D0CDB7DEB70E9429061EE7198386EB09
:100B20008A8342E0BE016F5F7F4F88E690E00E94BB
:100B30007F0587ED96ED0197F1F700C0000019835E
:100B400082E18A8342E0BE016F5F7F4F88E690E0DA
:100B50000E947F0587E893E10197F1F700C000004C
:100B600080E4898388E88A8342E0BE016F5F7F4F1B
:100B700088E690E00E947F0583E589838AE08A8386
:100B800042E0BE016F5F7F4F88E690E00E947F05E4
:100B900084E589838BE08A8342E0BE016F5F7F4FEB
:100BA00088E690E00E947F0585E5898384E08A835A
:100BB00042E0BE016F5F7F4F88E690E00E947F05B4
:100BC00082E6898384E28A8342E0BE016F5F7F4FC1
:100BD00088E690E00E947F0580E6898310E51A830D
:100BE00042E0BE016F5F7F4F88E690E00E947F0584
:100BF0008FE5898381E08A8342E0BE016F5F7F4F8A
:100C000088E690E00E947F05198387E08A8342E0AE
:100C1000BE016F5F7F4F88E690E00E947F050E94D3
:100C200086060F900F90DF91CF911F910895E0E01D
:100C3000F9E08581807C31F08091050984FF07C04F
:100C400082E0089585818C70A1F384E0089581E0AD
:100C5000089582E08093E505E0E0F9E08EE0868388
:100C600081E083831782108685830895CF92DF9277
:100C7000EF92FF920F931F93CF93DF938B01C42FBB
:100C80008E7F809307090E9417068130F9F4CC23E8
:100C900001F10115110501F1C150D0E02196E12CBF
:100CA000F12C0F2EC12CF9E0DF2EF02DF8018191EF
:100CB0008F01F60180870E941706813081F4FFEFD3
:100CC000EF1AFF0ACE15DF0589F70AC0CFEFDFEF75
:100CD00007C0C0E0D0E004C0C0E0D0E001C0E70140
:100CE000CE01DF91CF911F910F91FF90EF90DF9098
:100CF000CF900895E0E0F9E08481886084831382D6
:100D000081E08383858181608583089583E080937A
:100D100004090E947A068FE891E00197F1F700C07C
:100D2000000008959C01E0E4FAE08EE08083938562
:100D30009160938726A337A380818160808310A26E
:100D400011A2838580FFFDCFE0E4FAE08385816016
:100D500083870895E0E0FAE010A211A28FE99FE0F6
:100D600086A397A38EE0808381E08387828780813A
:100D70008160808308951F920F920FB60F92112405
:100D80000BB60F922F933F938F939F93AF93BF9385
:100D9000EF93FF938091AE428823E1F08091B042BF
:100DA0009091B1429C012F5F3F4F2093B04230930E
:100DB000B142E0E2F8E02081DC01AE54BD4B2C935F
:100DC00080818D3059F41092AE421092B042109250
:100DD000B14204C08091200880937A43FF91EF9143
:100DE000BF91AF919F918F913F912F910F900BBE2B
:100DF0000F900FBE0F901F9018951F920F920FB675
:100E00000F9211240BB60F928F93EF93FF93E0E6AE
:100E1000F4E081858064818781E08093AD42FF9119
:100E2000EF918F910F900BBE0F900FBE0F901F9000
:100E300018951F920F920FB60F9211248F939F93C4
:100E400081E080930B0A8091AC4291E0980F9093DF
:100E5000AC42833029F481E08093AF421092AC42DF
:100E600080E4809347049F918F910F900FBE0F9065
:100E70001F901895CF93DF93EC018FE891E00E94CB
:100E8000920680E291E40E94CD088FEC97E00E94E8
:100E900092068CE291E40E94CD088FEC97E00E94CC
:100EA0009206CE010E94CD088AE00E94C5088AE120
:100EB0000E94C508DF91CF910895CF93DF93CDB7FE
:100EC000DEB72597CDBFDEBF0E946F050E94DD080B
:100ED0000E94AA060E948505789485E491E40E9408
:100EE000CD0810E00AE0E12C6894CC24C6F8DD249B
:100EF000D2F86894BB24B6F8112309F44CC0113021
:100F000009F076C08091AF42882309F471C0109235
:100F1000AF42F601B78280E00E9462058AE591E463
:100F20000E94CD0887E790E00E94920686E691E451
:100F30000E94CD088FEC97E00E94920685E791E42D
:100F40000E94CD0885E890E00E94920681E080939F
:100F5000AE4280E090E40E94510280EC91E40E9455
:100F60003A07FF24FA94F00E41E050E0BE016F5FB3
:100F70007F4F802F90E00E94190884E891E40E943E
:100F8000CD08CE0101960E94CD0883E491E40E9431
:100F9000CD080F2D2DC0E11021C001C00AE08EE860
:100FA00091E40E94CD0887EC90E00E9492068DE9C2
:100FB00091E40E94CD0887EC90E00E94920689EAB5
:100FC00091E40E94CD0887EC90E00E94920681E0B7
:100FD0000E946205EE24E39410E00AC08091AF42C3
:100FE000882331F01092AF4286EB91E40E94CD0845
:100FF0008091AD42882319F01092AD4211E0002398
:1010000069F27ACF9B01215031091216130684F43C
:10101000FC01E60FF71FDC0180E090E04C9152915B
:101020005D93408301962150310982179307B4F3F1
:101030000895CF92DF92EF92FF920F931F93CF9379
:10104000DF936B018A01009731F4E0E0F0E0E017F4
:10105000F107A4F01EC0EB01E0E0F0E00F2EFAE093
:10106000EF2EF12CF02D3196B7010E94830C805D9C
:101070008993862F972F0097B1F7E9CFEC0DFD1DCF
:101080009601200F311F80E38193E217F307E1F708
:1010900001C08F01B801C6010E940208E601C00F1D
:1010A000D11F1882C801DF91CF911F910F91FF903E
:1010B000EF90DF90CF9008952F923F924F925F92E2
:1010C0006F927F928F929F92AF92BF92CF92DF9258
:1010D000EF92FF920F931F93CF93DF934B015C012D
:1010E0008A01E9010E945B096B017C0140E050E04C
:1010F000B801C6010E9419081C01209799F1F80156
:10110000E80FF91F8EE28083BE010D2E000C880BC4
:10111000990B0E9493099B01AC0160E070E080E2B2
:1011200091E40E948C0A2B013C01B601DD0C880B76
:10113000990B0E9493099B01AC01C501B4010E9467
:10114000EE082FEF221A320A020D131DA30192019D
:101150000E941F0A0E945B09DC01CB01AE01B801AD
:101160000E941908DF91CF911F910F91FF90EF908E
:10117000DF90CF90BF90AF909F908F907F906F90B7
:101180005F904F903F902F900895E0E2F8E09481B7
:1011900095FFFDCF809322080895CF93DF93EC0154
:1011A0002196FC018081882329F00E94C50889913D
:1011B0008111FBCFDF91CF910895E0E2F8E08581C6
:1011C0008068858383E896E08087918780EC8683BA
:1011D000E0E4F4E080818160808308955058BB276B
:1011E000AA270E9406090C94E5090E94D70938F045
:1011F0000E94DE0920F039F49F3F19F426F40C9484
:10120000D4090EF4E095E7FB0C94CE09E92F0E9477
:10121000F60958F3BA17620773078407950720F099
:1012200079F4A6F50C94180A0EF4E0950B2EBA2F5B
:10123000A02D0B01B90190010C01CA01A0011124DC
:10124000FF27591B99F0593F50F4503E68F11A1688
:10125000F040A22F232F342F4427585FF3CF469519
:1012600037952795A795F0405395C9F77EF41F163B
:10127000BA0B620B730B840BBAF09150A1F0FF0F05
:10128000BB1F661F771F881FC2F70EC0BA0F621FF1
:10129000731F841F48F4879577956795B795F795E1
:1012A0009E3F08F0B0CF9395880F08F09927EE0F76
:1012B0009795879508950E9462096894B1110C94DE
:1012C000190A08950E94FE0988F09F5798F0B92FD7
:1012D0009927B751B0F0E1F0660F771F881F991F6B
:1012E0001AF0BA95C9F714C0B13091F00E94180AEB
:1012F000B1E008950C94180A672F782F8827B85FFB
:1013000039F0B93FCCF3869577956795B395D9F7C2
:101310003EF490958095709561957F4F8F4F9F4FCC
:101320000895E89409C097FB3EF4909580957095D8
:1013300061957F4F8F4F9F4F9923A9F0F92F96E921
:10134000BB279395F695879577956795B795F11196
:10135000F8CFFAF4BB0F11F460FF1BC06F5F7F4F33
:101360008F4F9F4F16C0882311F096E911C0772345
:1013700021F09EE8872F762F05C0662371F096E84E
:10138000862F70E060E02AF09A95660F771F881F1D
:10139000DAF7880F9695879597F9089597F99F67DB
:1013A00080E870E060E008959FEF80EC08950024ED
:1013B0000A941616170618060906089500240A94BA
:1013C00012161306140605060895092E0394000C40
:1013D00011F4882352F0BB0F40F4BF2B11F460FFCF
:1013E00004C06F5F7F4F8F4F9F4F089557FD9058F8
:1013F000440F551F59F05F3F71F04795880F97FBD9
:10140000991F61F09F3F79F0879508951216130692
:101410001406551FF2CF4695F1DF08C016161706C1
:101420001806991FF1CF86957105610508940895F6
:10143000E894BB2766277727CB0197F908950E9488
:10144000320A0C94E5090E94D70938F00E94DE099F
:1014500020F0952311F00C94CE090C94D40911249A
:101460000C94190A0E94F60970F3959FC1F3950F29
:1014700050E0551F629FF001729FBB27F00DB11D18
:10148000639FAA27F00DB11DAA1F649F6627B00DA8
:10149000A11D661F829F2227B00DA11D621F739F91
:1014A000B00DA11D621F839FA00D611D221F749F9F
:1014B0003327A00D611D231F849F600D211D822FE6
:1014C000762F6A2F11249F5750409AF0F1F088230D
:1014D0004AF0EE0FFF1FBB1F661F771F881F91503A
:1014E0005040A9F79E3F510580F00C94CE090C9412
:1014F000190A5F3FE4F3983ED4F386957795679594
:10150000B795F795E7959F5FC1F7FE2B880F911D63
:101510009695879597F90895FA01EE0FFF1F30967B
:1015200021053105A1F16115710561F48038BFE332
:101530009B0749F168949038810561F08038BFEFCE
:101540009B0741F099234AF5FF3FE105310521054D
:1015500019F1E8940894E795D901AA2329F4AB2F4F
:10156000BE2FF85FD0F310C0FF5F70F4A695E0F7D0
:10157000F73950F019F0FF3A38F49F779F930DD068
:101580000F9007FC9058089546F00C94D40960E041
:1015900070E080E89FE308954FE79F775F934F9354
:1015A0003F932F930E94870B2F913F914F915F9113
:1015B0000E941F0A0C94E40A29F416F00C94CE0938
:1015C0000C94180A0C94D4090E94FE09A8F39638CA
:1015D000A0F707F80F92E8942BE33AEA48EB5FE7AD
:1015E0000E94350A0F920F920F924DB75EB70F927D
:1015F0000E94CF0BE6EFF0E00E94160B4F915F9137
:10160000EF91FF91E595EE1FFF1F49F0FE57E0684F
:101610004427EE0F441FFA95E1F74195550B0E94C0
:10162000490B0F9007FE0C943D0B0895DF93CF9369
:101630001F930F93FF92EF92DF927B018C016894CE
:1016400006C0DA2EEF010E94320AFE01E894A5914D
:101650002591359145915591A6F3EF010E94060918
:10166000FE019701A801DA9469F7DF90EF90FF90EF
:101670000F911F91CF91DF9108959B01AC0160E024
:1016800070E080E89FE30C94030C0C94CE090C945A
:10169000750C0E94FE09D8F39923C9F3940F511DCC
:1016A000A3F39150504094F059F0882332F0660F24
:1016B000771F881F91505040C1F79E3F51052CF76E
:1016C000880F911D9695879597F908955F3FACF027
:1016D000983E9CF0BB27869577956795B79508F45B
:1016E000B1609395C1F7BB0F58F711F460FFE8CFD5
:1016F0006F5F7F4F8F4F9F4FE3CF0C94190A16F007
:101700000C94750C0C94D40968940C94CE090E9426
:10171000FE09A8F39923C1F3AEF3DF93CF931F9390
:101720000F93FF92C92FDD2788232AF02197660F98
:10173000771F881FDAF720E030E040E85FEB9FE397
:10174000883920F0803E38F021968F770E94EF088C
:10175000EEE1F1E004C00E94EF08EBE4F1E00E944A
:10176000160B8B01BE01EC01FB2E6F5771097595AD
:10177000771F880B990B0E94930928E132E741E318
:101780005FE30E94320AAF2D9801AE01FF900F91E6
:101790001F91CF91DF910E9406090C94E509FA018F
:1017A000DC01AA0FBB1F9B01AC01BF5728F4222705
:1017B00033274427507820C0B75190F4AB2F002432
:1017C000469537952795011CA395D2F3002071F01B
:1017D000220F331F441FB395DAF30ED00C94EE089A
:1017E00061307105A0E88A07B94630F49B01AC016D
:1017F0006627772788279078309621F020833183D9
:101800004283538308950E94170C0C94E5090E94AB
:10181000DE0958F00E94D70940F029F45F3F29F013
:101820000C94CE0951110C94190A0C94D4090E94FD
:10183000F60968F39923B1F3552391F3951B550BE2
:10184000BB27AA2762177307840738F09F5F5F4F93
:10185000220F331F441FAA1FA9F335D00E2E3AF0D2
:10186000E0E832D091505040E695001CCAF72BD0EA
:10187000FE2F29D0660F771F881FBB1F261737073B
:101880004807AB07B0E809F0BB0B802DBF01FF276D
:1018900093585F4F3AF09E3F510578F00C94CE0973
:1018A0000C94190A5F3FE4F3983ED4F3869577953C
:1018B0006795B795F7959F5FC9F7880F911D969526
:1018C000879597F90895E1E0660F771F881FBB1F82
:1018D000621773078407BA0720F0621B730B840B2F
:1018E000BA0BEE1F88F7E09508959F3F31F09150B5
:1018F00020F4879577956795B795880F911D9695F4
:10190000879597F9089597FB072E16F4009407D052
:1019100077FD09D00E94A00C07FC05D03EF49095FD
:1019200081959F4F0895709561957F4F0895EE0FB3
:10193000FF1F0024001C0BBE0790F691E02D0994B8
:10194000AA1BBB1B51E107C0AA1FBB1FA617B707E5
:1019500010F0A61BB70B881F991F5A95A9F7809501
:101960009095BC01CD010895662777270C94DB0C78
:1019700091110C94C20C80538A5018F0865C0C9420
:10198000C80C089599278827089585FD0C94C20CEA
:10199000806291110C94C20C81568A51D8F7089537
:1019A000FB01DC010D900020E9F7119701900D92E9
:1019B0000020E1F708958F929F92AF92BF92CF924D
:1019C000DF92EF92FF920F931F93CF93DF93EC017F
:1019D0006B016115710519F0FB01808391837E0114
:1019E000FFEFEF1AFF0A0881802F90E00E94370E68
:1019F000892B11F0E701F3CF0D3239F47E0182E03B
:101A0000E80EF11C098111E008C00B3229F47E01B7
:101A100092E0E90EF11C098110E0E701219743E013
:101A200050E060E871E0CE010E94400E892BC1F4C5
:101A3000239645E050E06BE771E0CE010E94400E36
:101A4000892B09F42596C114D10419F0F601C0833D
:101A5000D1831111F6C060E070E080E89FE7FAC022
:101A600043E050E068E771E0CE010E94400E892B10
:101A700059F4C114D10409F4E9C0F2E0EF0EF11CED
:101A8000F601E082F182E2C020E030E0A901C0E08E
:101A9000D0E0F70160EDA62EA00E89E08A1530F1A6
:101AA000912F9260B92E812F887012FF04C081118E
:101AB00024C0219622C081112197A5E0B0E00E94A8
:101AC000810EDC01CB01880F991FAA1FBB1F9C014F
:101AD000AD012A0D311D411D511D283989E93807F5
:101AE000480789E1580748F0166006C09EEFA91222
:101AF0000AC013FD40C01860B12E8FEFE81AF80A33
:101B000000811B2DC6CF802F8F7D8534A1F580816C
:101B10008D3211F4106106C08B3221F0319661E0F4
:101B200070E004C08181329662E070E080538A30B8
:101B300018F0E61BF70B1FC060E070E060389CE017
:101B400079075CF4DB01AA0FBB1FAA0FBB1F6A0F4A
:101B50007B1F660F771F680F711D3196DF0111978C
:101B60008C9180538A3050F314FF03C071956195B6
:101B70007109C60FD71F11FF08C0C114D10429F085
:101B8000CF010197F60180839183CA01B9010E94B8
:101B90009109212F2370233019F04B015C0106C0FD
:101BA0004B015C01B7FAB094B7F8B09420E030E094
:101BB000A901C501B4010E94580E882309F43EC052
:101BC000D7FF06C0D195C195D10907E911E002C040
:101BD0000FEA11E06801F8E1CF1AD10890E2E92E8E
:101BE000F12CCE15DF0574F0F80125913591459162
:101BF0005491C501B4010E941F0A4B015C01CE192A
:101C0000DF09EFCF04501109F594E7940C151D0579
:101C100041F78A2D880F8B2D881F8F3F49F020E0D8
:101C200030E0A901C501B4010E94580E811106C01F
:101C300082E290E080937B4390937C43C501B401A2
:101C400009C060E070E080E89FEF04C060E070E0F1
:101C500080EC9FE7DF91CF911F910F91FF90EF9064
:101C6000DF90CF90BF90AF909F908F90089591118B
:101C70000C94C20C803219F089508550C8F7089531
:101C8000FB01DC014150504088F08D9181341CF003
:101C90008B350CF4805E659161341CF06B350CF46F
:101CA000605E861B611171F3990B0895881BFCCF50
:101CB0000E945D0E08F481E00895990F0008550F09
:101CC000AA0BE0E8FEEF16161706E807F907C0F0C2
:101CD00012161306E407F50798F0621B730B840BCA
:101CE000950B39F40A2661F0232B242B252B21F4A4
:101CF00008950A2609F4A140A6958FEF811D811D44
:101D000008950E948C0EA59F900DB49F900DA49FE6
:101D1000800D911D11240895A29FB001B39FC001B1
:101D2000A39F700D811D1124911DB29F700D811D07
:0A1D30001124911D0895F894FFCFCF
:101D3A002447504747412C000000000000000000E3
:101D4A000000000000000000000000000000000089
:101D5A000000000000000000000000000000000079
:101D6A000000000000000000000000000000000069
:101D7A000000000000000000000000000000000059
:101D8A000000000000000000000000000000000049
:101D9A000000000000000000000000000000000039
:101DAA000000000000000000000000000000000029
:101DBA000000000000000000000000000000000019
:101DCA000000000000000000000000000000000009
:101DDA0000000000000000000000000000000000F9
:101DEA0000000000000000000000000000000000E9
:101DFA0000000000000000002054696D653A286860
:101E0A00686D6D73732920004C617469747564651B
:101E1A00202864646D6D2E6D6D6D293A20004E2F59
:101E2A00533A20004C6F6E676974756465202864A4
:101E3A00646D6D2E6D6D6D293A00452F5720496EE0
:101E4A0064696361746F723A2000475047474100E2
:101E5A0041542B434D47463D310D0A0041542B4313
:101E6A004D47533D222B34303736393239373738DC
:101E7A0030220D0A004D6F64756C6520496E6974D5
:101E8A0069616C697A65640D0A0041542B434655B1
:101E9A004E3D310D0A0041542B434750535057527F
:101EAA003D310D0A0041542B43475053494E463D9C
:101EBA00320D0A004750535F434E543A20004154B2
:101ECA002B434750535057523D300D0A0041542B73
:101EDA004346554E3D300D0A0041542B4353434C63
:101EEA004B3D310D0A00536C6565702E2E2E0A008B
:00000001FF
