:100000000C94DB000C9405010C9405010C94050183
:100010000C9405010C9405010C9405010C94010647
:100020000C9405010C9405010C9405010C94050138
:100030000C9405010C9405010C9405010C94050128
:100040000C9405010C9405010C9405010C94050118
:100050000C9405010C9405010C94E5050C94050124
:100060000C9405010C9405010C9405010C940501F8
:100070000C9405010C9405010C9405010C94A30546
:100080000C9405010C9405010C9405010C940501D8
:100090000C9405010C9405010C9405010C940501C8
:1000A0000C9405010C9405010C9405010C940501B8
:1000B0000C9405010C9405010C9405010C940501A8
:1000C0000C9405010C9405010C9405010C94050198
:1000D0000C9405010C9405010C9405010C94050188
:1000E0000C9405010C94050124034503D0031E0460
:1000F0006404A604C20407634236B79BD8A71A3922
:10010000685618AEBAAB558C1D3CB7CC5763BD6D65
:10011000EDFD753EF6177231BF000000803F08000C
:100120000000BE922449123EABAAAA2ABECDCCCC76
:100130004C3E00000080BEABAAAAAA3E0000000010
:10014000BF000000803F0000000000084178D3BBE2
:100150004387D1133D190E3CC3BD4282AD2B3E688F
:10016000EC8276BED98FE1A93E4C80EFFFBE01C480
:10017000FF7F3F00000000004E414E494E49545958
:10018000494E46CDCCCC3D0AD7233C17B7D1387762
:10019000CC2B329595E6241FB14F0A000020410078
:1001A00000C84200401C4620BCBE4CCA1B0E5AAEC2
:1001B000C59D7400730511241FBECFEFCDBFDFE7CF
:1001C000DEBF10E4A0E0B0E4EAE7FDE100E00BBF31
:1001D00002C007900D92A83EB107D9F722E4A8EE1D
:1001E000B0E401C01D92A93BB207E1F710E0CBEDEE
:1001F000D0E004C02197FE010E94B70CCA3DD10790
:10020000C9F70E94AD060C94BB0E0C94000081E06F
:1002100080936A410895EF92FF920F931F93CF93BB
:10022000DF93CDB7DEB7A097CDBFDEBF10926A4196
:100230001092E8402091B9418DE490E0821B910931
:10024000181619060CF042C08091B7410091B641D2
:1002500010E005591E4BF801F080108290E085599E
:100260009E4B0E94D40C24ED31E4F901608371832C
:1002700082839383F801F08208EE10E4D8010D9098
:100280000020E9F7119780E1E3E0F0E401900D929E
:100290008A95E1F7F901608171818281938123E080
:1002A00030E0AE014F5F5F4F0E943E07BE016F5FBF
:1002B0007F4FC8010E94F00CF80101900020E9F77F
:1002C00031978AE09DE08083918312822091B94129
:1002D0008DE490E0821B910902970CF442C080915A
:1002E000B6410091B54110E005591E4BF801F08070
:1002F000108290E085599E4B0E94D40C24ED31E48D
:10030000F9016483758386839783F801F08208EE90
:1003100010E4D8010D900020E9F7119786E1E3E1A0
:10032000F0E401900D928A95E1F7F90164817581FD
:100330008681978123E030E0AE014F5F5F4F0E94DE
:100340003E07BE016F5F7F4FC8010E94F00CF801AD
:1003500001900020E9F731978AE09DE08083918346
:1003600012828091B9410DE410E0081B110903309D
:100370001105CCF18091B4412091B54130E0F901F3
:10038000E559FE4B90819093DC4190E0821B930BEA
:10039000019749F50F2EF8EEEF2EF0E4FF2EF02D29
:1003A000D7010D900020E9F7119786E0E9E2F0E42B
:1003B00001900D928A95E1F718A28091DC418F8F10
:1003C000BE01615E7F4FC7010E94F00CF7010190F2
:1003D0000020E9F7319780E29AE0808391838DE0F5
:1003E00090E082839383043011050CF442C0809125
:1003F000B4410091B34110E005591E4BF801F08063
:10040000108290E085599E4B0E94D40C44ED51E43B
:10041000FA016187728783879487F801F08208EE7A
:1004200010E4D8010D900020E9F7119726E1EFE2E2
:10043000F0E401900D922A95E1F7FA016185728549
:100440008385948523E030E0AE014F5F5F4F0E94CB
:100450003E07BE016F5F7F4FC8010E94F00CF8019C
:1004600001900020E9F731978AE09DE08083918335
:1004700012822091B9418DE490E0821B9109059789
:1004800094F18091B2412091B34130E0F901E559F6
:10049000FE4B90819093E14190E0821B930B01977A
:1004A00011F508EE10E4D8010D900020E9F711973E
:1004B00080E1E5E4F0E401900D928A95E1F718A25D
:1004C0008091E1418F8FBE01615E7F4FC8010E9424
:1004D000F00CF80101900020E9F731978AE09DE0E7
:1004E000808391831282A096CDBFDEBFDF91CF9132
:1004F0001F910F91FF90EF9008952F923F925F927E
:100500006F927F928F929F92AF92BF92CF92DF9223
:10051000EF92FF920F931F93CF93DF9300D000D001
:10052000CDB7DEB789839A8387E091E08093BA41A3
:100530009093BB414091CE41423008F043C04423E8
:1005400091F0AEEBB1E4E5E5F0E42AE530E48D911D
:100550009191891721F08D3211F09D3221F42E17DF
:100560003F07A9F72FC0A42FB0E0AA0FBB1FAA0F07
:10057000BB1FAA0FBB1FA254BE4B85E0E5E5F0E40C
:1005800001900D928A95E1F7AEECB1E42C91822FA7
:1005900090E0FC01EE0FFF1FEE0FFF1FEE0FFF1F9D
:1005A000ED53FE4B1082880F991F880F991F880FFB
:1005B000991FFC01EC53FE4B8BE091E0808391830B
:1005C0002F5F2C9309811A81812C912C54010F2EBD
:1005D000FFECEF2EF1E4FF2EF02D0F2EF0ED6F2E3D
:1005E000F1E47F2EF02D0F2EF9EB2F2EF1E43F2EAC
:1005F000F02D0F2EF0E7CF2EF1E4DF2EF02D0B8340
:100600001C83EB81FC8101900020E9F73197CF0139
:10061000AB81BC818A1B9B0BA0E0B0E088169906D9
:10062000AA06BB0608F04AC2F80151908F01D70113
:10063000EC918E2F90E08730910508F012C2FC01FA
:10064000EC58FF4F0C94B70CF3011082F4E25F12E8
:1006500007C0A2EDB1E41C9281E0F701808315C2CE
:1006600081E0D3018C93AAEBB1E4ED91FC9130973A
:1006700009F00995F7011082A8EBB1E41C928DE412
:10068000F1018083D3011C9200C2852D90E00E946D
:10069000D80C892B09F442C0A8EBB1E4EC91D1014C
:1006A0008C91E81730F5E53078F481E08E0FA8EBF7
:1006B000B1E48C93F0E0E559FE4B5082E2EDF1E4B9
:1006C000808185258083E1C183E0D3018C93AAEBEF
:1006D000B1E4ED91FC91309709F00995F701108292
:1006E000A8EBB1E41C928DE4F1018083D3011C924C
:1006F000CCC182E0F3018083AAEBB1E4ED91FC91DF
:10070000309709F00995F7011082A8EBB1E41C922B
:100710008DE4F1018083D3011C92B7C1BAE25B166C
:10072000C1F0ECE25E1227C0A2EDB1E49C918CE234
:1007300089278C93D101EC91E150EC93F0E0E559DD
:10074000FE4BA8EBB1E48C91808382E0F7018083BB
:100750009CC1A3EDB1E41C92D101EC91E150EC936A
:10076000F0E0E559FE4BA8EBB1E48C91808383E087
:10077000F70180838AC181E0D3018C93AAEBB1E4B5
:10078000ED91FC91309709F00995F7011082A8EBE3
:10079000B1E41C928DE4F1018083D3011C9275C1F8
:1007A000E8EBF1E48081D101EC918E1790F5BAE28B
:1007B0005B1689F0FCE25F121CC0A2EDB1E42C9143
:1007C0009CE292279C93E150D101EC93F0E0E55933
:1007D000FE4B80835AC1A3EDB1E41C92E150D101DC
:1007E000EC93F0E0E559FE4B808383E0F7018083D2
:1007F0004CC1A2EDB1E49C9195259C9391E0980F9A
:10080000E8EBF1E49083E82FF0E0E559FE4B5082ED
:100810003CC182E0D3018C93AAEBB1E4ED91FC9151
:10082000309709F00995F7011082A8EBB1E41C920A
:100830008DE4F1018083D3011C9227C1852D90E0C6
:10084000C0970A9718F480ED850D1AC0E52DF0E0E9
:10085000E983FA83CF010E94E50C892B31F0F6E49D
:10086000F51518F089EC850D0BC089819A810E94DD
:10087000E90C892BA1F026E6251588F089EA850D7B
:100880008F3F69F030E1839FC0011124A3EDB1E4F3
:100890009C91892B8C9384E0F7018083F6C081E0E2
:1008A000D3018C93AAEBB1E4ED91FC91309709F060
:1008B0000995F7011082A8EBB1E41C928DE4F101D7
:1008C0008083D3011C92E1C0852D90E0C0970A97E8
:1008D00018F480ED850D1AC0E52DF0E0E983FA8368
:1008E000CF010E94E50C892B31F0F6E4F51518F0E4
:1008F00089EC850D0BC089819A810E94E90C892BB6
:1009000081F026E6251568F089EA850D8F3F49F0CC
:10091000A3EDB1E49C91892B8C9385E0F701808352
:10092000B4C081E0D3018C93AAEBB1E4ED91FC91CA
:10093000309709F00995F7011082A8EBB1E41C92F9
:100940008DE4F1018083D3011C929FC0BDE05B1256
:1009500004C086E0F701808398C081E0D3018C93C6
:10096000AAEBB1E4ED91FC91309709F00995F701FC
:100970001082A8EBB1E41C928DE4F1018083D301D5
:100980001C9283C0BAE05B1257C0E1EDF1E48081B4
:10099000882399F0A3EDB1E49C91E2EDF1E480812C
:1009A000981759F084E0D3018C93AAEBB1E4ED9150
:1009B000FC913097B1F1099534C0E7EBF1E4408147
:1009C00050E0FA01E559FE4B50801082AEECB1E4E4
:1009D0007C91772309F46DC02EEB31E460E0EBE607
:1009E000F1E4D9018D919191891729F08D3219F097
:1009F0009D3209F050C0EC15FD05A1F752C0B8E0DA
:100A00006B02F0011124EC53FE4B0190F081E02DBC
:100A1000099507C0ACEBB1E4ED91FC91309709F07A
:100A20000995F7011082A8EBB1E41C928DE4F10165
:100A30008083D3011C9229C081E0F3018083AAEB5B
:100A4000B1E4ED91FC91309709F00995F70110821E
:100A5000A8EBB1E41C928DE4F1018083D3011C92D8
:100A600014C085E0F3018083AAEBB1E4ED91FC9121
:100A7000309709F00995F7011082A8EBB1E41C92B8
:100A80008DE4F1018083D3011C92BFEF8B1A9B0A86
:100A9000AB0ABB0AB6CD6F5F285F3F4F76139FCF7F
:100AA00008C0FA01E559FE4B50826F3F09F0A7CF0D
:100AB000B1CFFA01E559FE4B5082ACCF2496CDBFA1
:100AC000DEBFDF91CF911F910F91FF90EF90DF90EC
:100AD000CF90BF90AF909F908F907F906F905F90DE
:100AE0003F902F9008951092BA411092BB411092FE
:100AF000BC411092BD411092CE411092D04181E094
:100B00008093D1411092D2411092D3411092CF41A3
:100B10001092B8418DE48093B9410895882321F063
:100B200080E280934504089580E28093460408950E
:100B3000E0E4F4E08081806F808382E0809376043B
:100B400080E4858308951F920F920FB60F921124AF
:100B50000BB60F922F933F938F939F93AF93BF93B7
:100B6000EF93FF938091E5418823E1F08091E74185
:100B70009091E8419C012F5F3F4F2093E7413093D4
:100B8000E841E0E2F8E02081DC01A251BE4B2C9369
:100B900080818D3059F41092E5411092E741109216
:100BA000E84104C0809120088093B642FF91EF9104
:100BB000BF91AF919F918F913F912F910F900BBE5D
:100BC0000F900FBE0F901F9018951F920F920FB6A7
:100BD0000F9211240BB60F928F93EF93FF93E0E6E1
:100BE000F4E081858064818781E08093E441FF9116
:100BF000EF918F910F900BBE0F900FBE0F901F9033
:100C000018951F920F920FB60F9211248F939F93F6
:100C100081E080930B0A8091E24191E0980F9093DC
:100C2000E241833029F481E08093E6411092E24171
:100C30009F918F910F900FBE0F901F901895CF939B
:100C4000DF93EC018BE590E40E94ED088FE891E0E2
:100C50000E94BA0887E690E40E94ED088FE891E0D0
:100C60000E94BA08CE010E94ED088AE00E94E508C1
:100C70008AE10E94E508DF91CF9108950E949805CE
:100C80000E94FD080E94D2080E94AD07089580913D
:100C9000E341811116C080E890E40E94ED0887ECE2
:100CA00090E00E94BA0887EC90E00E94BA0887ECB6
:100CB00090E00E94BA0881E00E948E0581E0809356
:100CC000E34108958091E641882309F445C01092DC
:100CD000E64180E00E948E058FE890E40E94ED08D6
:100CE00087E790E00E94BA088BE990E40E94ED0843
:100CF0008FEC97E00E94BA088AEA90E40E94ED081F
:100D000081E08093E5418FE39FE10E94BA0889EB7F
:100D100090E40E94ED088EEE91E40E947D0288EE40
:100D200090E40E941F06809100409FEF980F9093DF
:100D3000004041E050E069EE71E490E00E94FB0663
:100D400088EC90E40E94ED0889EE91E40E94ED08A1
:100D50008EE790E40E94ED0808950E943E06789484
:100D600082ED90E40E94ED0800E414E0D0E40F2E40
:100D7000F3E0FF2EF02DCBE0CA3019F0CB3039F084
:100D80000BC00E946206F801D683CAE009C00E9427
:100D90004706F801D58304C00E944706F801D583B1
:100DA0008091E441882339F01092E4418091004021
:100DB0008111E7CF04C0809100408111DDCFF09216
:100DC00000401092E341D7CF9B0121503109121608
:100DD000130684F4FC01E60FF71FDC0180E090E0CD
:100DE0004C9152915D9340830196215031098217B5
:100DF0009307B4F30895CF92DF92EF92FF920F938F
:100E00001F93CF93DF936B018A01009731F4E0E0E9
:100E1000F0E0E017F107A4F01EC0EB01E0E0F0E025
:100E20000F2EFAE0EF2EF12CF02D3196B7010E9433
:100E3000A30C805D8993862F972F0097B1F7E9CF98
:100E4000EC0DFD1D9601200F311F80E38193E21709
:100E5000F307E1F701C08F01B801C6010E94E40663
:100E6000E601C00FD11F1882C801DF91CF911F91F9
:100E70000F91FF90EF90DF90CF9008952F923F92C7
:100E80004F925F926F927F928F929F92AF92BF929A
:100E9000CF92DF92EF92FF920F931F93CF93DF9346
:100EA0004B015C018A01E9010E947B096B017C0115
:100EB00040E050E0B801C6010E94FB061C012097EB
:100EC00099F1F801E80FF91F8EE28083BE010D2E23
:100ED000000C880B990B0E94B3099B01AC0160E0E8
:100EE00070E080E291E40E94AC0A2B013C01B60163
:100EF000DD0C880B990B0E94B3099B01AC01C50165
:100F0000B4010E940E092FEF221A320A020D131D9E
:100F1000A30192010E943F0A0E947B09DC01CB01E0
:100F2000AE01B8010E94FB06DF91CF911F910F9196
:100F3000FF90EF90DF90CF90BF90AF909F908F90F9
:100F40007F906F905F904F903F902F900895880F03
:100F50000E945E080E94AE0808951F93CF93DF930E
:100F600000D0CDB7DEB70E9451081EE7198386EB8B
:100F70008A8342E0BE016F5F7F4F88E690E00E9467
:100F8000A70787ED96ED0197F1F700C000001983E0
:100F900082E18A8342E0BE016F5F7F4F88E690E086
:100FA0000E94A70787E893E10197F1F700C00000CE
:100FB00080E4898388E88A8342E0BE016F5F7F4FC7
:100FC00088E690E00E94A70783E589838AE08A8308
:100FD00042E0BE016F5F7F4F88E690E00E94A70766
:100FE00084E589838BE08A8342E0BE016F5F7F4F97
:100FF00088E690E00E94A70785E5898384E08A83DC
:1010000042E0BE016F5F7F4F88E690E00E94A70735
:1010100082E6898384E28A8342E0BE016F5F7F4F6C
:1010200088E690E00E94A70780E6898310E51A838E
:1010300042E0BE016F5F7F4F88E690E00E94A70705
:101040008FE5898381E08A8342E0BE016F5F7F4F35
:1010500088E690E00E94A707198387E08A8342E030
:10106000BE016F5F7F4F88E690E00E94A7070E9455
:10107000AE080F900F90DF91CF911F910895E0E09F
:10108000F9E08581807C31F08091050984FF07C0FB
:1010900082E0089585818C70A1F384E0089581E059
:1010A000089582E08093E505E0E0F9E08EE0868334
:1010B00081E083831782108685830895CF92DF9223
:1010C000EF92FF920F931F93CF93DF938B01C42F67
:1010D0008E7F809307090E943F088130F9F4CC236A
:1010E00001F10115110501F1C150D0E02196E12C6B
:1010F000F12C0F2EC12CF9E0DF2EF02DF80181919B
:101100008F01F60180870E943F08813081F4FFEF54
:10111000EF1AFF0ACE15DF0589F70AC0CFEFDFEF20
:1011200007C0C0E0D0E004C0C0E0D0E001C0E701EB
:10113000CE01DF91CF911F910F91FF90EF90DF9043
:10114000CF900895E0E0F9E0848188608483138281
:1011500081E08383858181608583089583E0809326
:1011600004090E94A2088FE891E00197F1F700C0FE
:10117000000008959C01E0E4FAE08EE0808393850E
:101180009160938726A337A380818160808310A21A
:1011900011A2838580FFFDCFE0E4FAE083858160C2
:1011A00083870895E0E0FAE010A211A28091014047
:1011B0009091024086A397A38EE0808381E083878D
:1011C00082878081816080830895E0E2F8E09481E5
:1011D00095FFFDCF809322080895CF93DF93EC0114
:1011E0002196FC018081882329F00E94E5088991DD
:1011F0008111FBCFDF91CF910895E0E2F8E0858186
:101200008068858383E896E08087918780EC868379
:10121000E0E4F4E080818160808308955058BB272A
:10122000AA270E9426090C94050A0E94F70938F0A3
:101230000E94FE0920F039F49F3F19F426F40C9423
:10124000F4090EF4E095E7FB0C94EE09E92F0E94F7
:10125000160A58F3BA17620773078407950720F038
:1012600079F4A6F50C94380A0EF4E0950B2EBA2FFB
:10127000A02D0B01B90190010C01CA01A00111249C
:10128000FF27591B99F0593F50F4503E68F11A1648
:10129000F040A22F232F342F4427585FF3CF4695D9
:1012A00037952795A795F0405395C9F77EF41F16FB
:1012B000BA0B620B730B840BBAF09150A1F0FF0FC5
:1012C000BB1F661F771F881FC2F70EC0BA0F621FB1
:1012D000731F841F48F4879577956795B795F795A1
:1012E0009E3F08F0B0CF9395880F08F09927EE0F36
:1012F0009795879508950E9482096894B1110C947E
:10130000390A08950E941E0A88F09F5798F0B92F55
:101310009927B751B0F0E1F0660F771F881F991F2A
:101320001AF0BA95C9F714C0B13091F00E94380A8A
:10133000B1E008950C94380A672F782F8827B85F9A
:1013400039F0B93FCCF3869577956795B395D9F782
:101350003EF490958095709561957F4F8F4F9F4F8C
:101360000895E89409C097FB3EF490958095709598
:1013700061957F4F8F4F9F4F9923A9F0F92F96E9E1
:10138000BB279395F695879577956795B795F11156
:10139000F8CFFAF4BB0F11F460FF1BC06F5F7F4FF3
:1013A0008F4F9F4F16C0882311F096E911C0772305
:1013B00021F09EE8872F762F05C0662371F096E80E
:1013C000862F70E060E02AF09A95660F771F881FDD
:1013D000DAF7880F9695879597F9089597F99F679B
:1013E00080E870E060E008959FEF80EC08950024AD
:1013F0000A941616170618060906089500240A947A
:1014000012161306140605060895092E0394000CFF
:1014100011F4882352F0BB0F40F4BF2B11F460FF8E
:1014200004C06F5F7F4F8F4F9F4F089557FD9058B7
:10143000440F551F59F05F3F71F04795880F97FB98
:10144000991F61F09F3F79F0879508951216130652
:101450001406551FF2CF4695F1DF08C01616170681
:101460001806991FF1CF86957105610508940895B6
:10147000E894BB2766277727CB0197F908950E9448
:10148000520A0C94050A0E94F70938F00E94FE09DE
:1014900020F0952311F00C94EE090C94F40911241A
:1014A0000C94390A0E94160A70F3959FC1F3950FA8
:1014B00050E0551F629FF001729FBB27F00DB11DD8
:1014C000639FAA27F00DB11DAA1F649F6627B00D68
:1014D000A11D661F829F2227B00DA11D621F739F51
:1014E000B00DA11D621F839FA00D611D221F749F5F
:1014F0003327A00D611D231F849F600D211D822FA6
:10150000762F6A2F11249F5750409AF0F1F08823CC
:101510004AF0EE0FFF1FBB1F661F771F881F9150F9
:101520005040A9F79E3F510580F00C94EE090C94B1
:10153000390A5F3FE4F3983ED4F386957795679533
:10154000B795F795E7959F5FC1F7FE2B880F911D23
:101550009695879597F90895FA01EE0FFF1F30963B
:1015600021053105A1F16115710561F48038BFE3F2
:101570009B0749F168949038810561F08038BFEF8E
:101580009B0741F099234AF5FF3FE105310521050D
:1015900019F1E8940894E795D901AA2329F4AB2F0F
:1015A000BE2FF85FD0F310C0FF5F70F4A695E0F790
:1015B000F73950F019F0FF3A38F49F779F930DD028
:1015C0000F9007FC9058089546F00C94F40960E0E1
:1015D00070E080E89FE308954FE79F775F934F9314
:1015E0003F932F930E94A70B2F913F914F915F91B3
:1015F0000E943F0A0C94040B29F416F00C94EE0997
:101600000C94380A0C94F4090E941E0AA8F3963828
:10161000A0F707F80F92E8942BE33AEA48EB5FE76C
:101620000E94550A0F920F920F924DB75EB70F921C
:101630000E94EF0BE6EFF0E00E94360B4F915F91B6
:10164000EF91FF91E595EE1FFF1F49F0FE57E0680F
:101650004427EE0F441FFA95E1F74195550B0E9480
:10166000690B0F9007FE0C945D0B0895DF93CF93E9
:101670001F930F93FF92EF92DF927B018C0168948E
:1016800006C0DA2EEF010E94520AFE01E894A591ED
:101690002591359145915591A6F3EF010E942609B8
:1016A000FE019701A801DA9469F7DF90EF90FF90AF
:1016B0000F911F91CF91DF9108959B01AC0160E0E4
:1016C00070E080E89FE30C94230C0C94EE090C94DA
:1016D000950C0E941E0AD8F39923C9F3940F511D4B
:1016E000A3F39150504094F059F0882332F0660FE4
:1016F000771F881F91505040C1F79E3F51052CF72E
:10170000880F911D9695879597F908955F3FACF0E6
:10171000983E9CF0BB27869577956795B79508F41A
:10172000B1609395C1F7BB0F58F711F460FFE8CF94
:101730006F5F7F4F8F4F9F4FE3CF0C94390A16F0A6
:101740000C94950C0C94F40968940C94EE090E9486
:101750001E0AA8F39923C1F3AEF3DF93CF931F932F
:101760000F93FF92C92FDD2788232AF02197660F58
:10177000771F881FDAF720E030E040E85FEB9FE357
:10178000883920F0803E38F021968F770E940F092B
:10179000EEE1F1E004C00E940F09EBE4F1E00E94E9
:1017A000360B8B01BE01EC01FB2E6F57710975954D
:1017B000771F880B990B0E94B30928E132E741E3B8
:1017C0005FE30E94520AAF2D9801AE01FF900F9186
:1017D0001F91CF91DF910E9426090C94050AFA010E
:1017E000DC01AA0FBB1F9B01AC01BF5728F42227C5
:1017F00033274427507820C0B75190F4AB2F0024F2
:10180000469537952795011CA395D2F3002071F0DA
:10181000220F331F441FB395DAF30ED00C940E0938
:1018200061307105A0E88A07B94630F49B01AC012C
:101830006627772788279078309621F02083318398
:101840004283538308950E94370C0C94050A0E942A
:10185000FE0958F00E94F70940F029F45F3F29F093
:101860000C94EE0951110C94390A0C94F4090E945D
:10187000160A68F39923B1F3552391F3951B550B81
:10188000BB27AA2762177307840738F09F5F5F4F53
:10189000220F331F441FAA1FA9F335D00E2E3AF092
:1018A000E0E832D091505040E695001CCAF72BD0AA
:1018B000FE2F29D0660F771F881FBB1F26173707FB
:1018C0004807AB07B0E809F0BB0B802DBF01FF272D
:1018D00093585F4F3AF09E3F510578F00C94EE0913
:1018E0000C94390A5F3FE4F3983ED4F386957795DC
:1018F0006795B795F7959F5FC9F7880F911D9695E6
:10190000879597F90895E1E0660F771F881FBB1F41
:10191000621773078407BA0720F0621B730B840BEE
:10192000BA0BEE1F88F7E09508959F3F31F0915074
:1019300020F4879577956795B795880F911D9695B3
:10194000879597F9089597FB072E16F4009407D012
:1019500077FD09D00E94C00C07FC05D03EF490959D
:1019600081959F4F0895709561957F4F0895EE0F73
:10197000FF1F0024001C0BBE0790F691E02D099478
:10198000AA1BBB1B51E107C0AA1FBB1FA617B707A5
:1019900010F0A61BB70B881F991F5A95A9F78095C1
:1019A0009095BC01CD010895662777270C94FB0C18
:1019B00091110C94E20C80538A5018F0865C0C94C0
:1019C000E80C089599278827089585FD0C94E20C6A
:1019D000806291110C94E20C81568A51D8F70895D7
:1019E000FB01DC010D900020E9F7119701900D92A9
:1019F0000020E1F708958F929F92AF92BF92CF920D
:101A0000DF92EF92FF920F931F93CF93DF93EC013E
:101A10006B016115710519F0FB01808391837E01D3
:101A2000FFEFEF1AFF0A0881802F90E00E94570E07
:101A3000892B11F0E701F3CF0D3239F47E0182E0FA
:101A4000E80EF11C098111E008C00B3229F47E0177
:101A500092E0E90EF11C098110E0E701219743E0D3
:101A600050E060E871E0CE010E94600E892BC1F465
:101A7000239645E050E06BE771E0CE010E94600ED6
:101A8000892B09F42596C114D10419F0F601C083FD
:101A9000D1831111F6C060E070E080E89FE7FAC0E2
:101AA00043E050E068E771E0CE010E94600E892BB0
:101AB00059F4C114D10409F4E9C0F2E0EF0EF11CAD
:101AC000F601E082F182E2C020E030E0A901C0E04E
:101AD000D0E0F70160EDA62EA00E89E08A1530F166
:101AE000912F9260B92E812F887012FF04C081114E
:101AF00024C0219622C081112197A5E0B0E00E9468
:101B0000A10EDC01CB01880F991FAA1FBB1F9C01EE
:101B1000AD012A0D311D411D511D283989E93807B4
:101B2000480789E1580748F0166006C09EEFA912E1
:101B30000AC013FD40C01860B12E8FEFE81AF80AF2
:101B400000811B2DC6CF802F8F7D8534A1F580812C
:101B50008D3211F4106106C08B3221F0319661E0B4
:101B600070E004C08181329662E070E080538A3078
:101B700018F0E61BF70B1FC060E070E060389CE0D7
:101B800079075CF4DB01AA0FBB1FAA0FBB1F6A0F0A
:101B90007B1F660F771F680F711D3196DF0111974C
:101BA0008C9180538A3050F314FF03C07195619576
:101BB0007109C60FD71F11FF08C0C114D10429F045
:101BC000CF010197F60180839183CA01B9010E9478
:101BD000B109212F2370233019F04B015C0106C09D
:101BE0004B015C01B7FAB094B7F8B09420E030E054
:101BF000A901C501B4010E94780E882309F43EC0F2
:101C0000D7FF06C0D195C195D10907E911E002C0FF
:101C10000FEA11E06801F8E1CF1AD10890E2E92E4D
:101C2000F12CCE15DF0574F0F80125913591459121
:101C30005491C501B4010E943F0A4B015C01CE19C9
:101C4000DF09EFCF04501109F594E7940C151D0539
:101C500041F78A2D880F8B2D881F8F3F49F020E098
:101C600030E0A901C501B4010E94780E811106C0BF
:101C700082E290E08093B7429093B842C501B401EC
:101C800009C060E070E080E89FEF04C060E070E0B1
:101C900080EC9FE7DF91CF911F910F91FF90EF9024
:101CA000DF90CF90BF90AF909F908F90089591114B
:101CB0000C94E20C803219F089508550C8F70895D1
:101CC000FB01DC014150504088F08D9181341CF0C3
:101CD0008B350CF4805E659161341CF06B350CF42F
:101CE000605E861B611171F3990B0895881BFCCF10
:101CF0000E947D0E08F481E00895990F0008550FA9
:101D0000AA0BE0E8FEEF16161706E807F907C0F081
:101D100012161306E407F50798F0621B730B840B89
:101D2000950B39F40A2661F0232B242B252B21F463
:101D300008950A2609F4A140A6958FEF811D811D03
:101D400008950E94AC0EA59F900DB49F900DA49F86
:101D5000800D911D11240895A29FB001B39FC00171
:101D6000A39F700D811D1124911DB29F700D811DC7
:0A1D70001124911D0895F894FFCF8F
:101D7A00039F0F2054696D653A2868686D6D737307
:101D8A002920004C61746974756465202864646D47
:101D9A006D2E6D6D6D293A20004E2F533A20004C5E
:101DAA006F6E676974756465202864646D6D2E6D45
:101DBA006D6D293A00452F5720496E646963617435
:101DCA006F723A200047504747410041542B434D18
:101DDA0047463D310D0A0041542B434D47533D229E
:101DEA002B3430373639323937373830220D0A003A
:101DFA0041542B434750535057523D300D0A00412E
:101E0A00542B4346554E3D310D0A0041542B43474E
:101E1A0050535057523D310D0A0041542B434750FD
:101E2A00534F55543D320D0A0041542B43475053EA
:101E3A004F55543D300D0A004750535F434E543AB4
:101E4A0020004D6F64756C6520496E697469616C18
:081E5A00697A65640D0A0000BD
:00000001FF
